{"contracts/EscrowHub.sol":{"EscrowHub":{"abi":[{"inputs":[],"stateMutability":"nonpayable","type":"constructor"},{"anonymous":false,"inputs":[{"indexed":false,"internalType":"address","name":"previousAdmin","type":"address"},{"indexed":false,"internalType":"address","name":"newAdmin","type":"address"}],"name":"AdminChanged","type":"event"},{"anonymous":false,"inputs":[{"indexed":true,"internalType":"address","name":"beacon","type":"address"}],"name":"BeaconUpgraded","type":"event"},{"anonymous":false,"inputs":[{"indexed":true,"internalType":"uint256","name":"escrowId","type":"uint256"},{"indexed":false,"internalType":"string","name":"cid","type":"string"},{"indexed":false,"internalType":"address","name":"buyer","type":"address"},{"indexed":false,"internalType":"address","name":"seller","type":"address"},{"indexed":true,"internalType":"uint256","name":"amount","type":"uint256"},{"indexed":true,"internalType":"uint256","name":"fee","type":"uint256"},{"indexed":false,"internalType":"enum EscrowHub.EscrowState","name":"state","type":"uint8"}],"name":"EscrowCreated","type":"event"},{"anonymous":false,"inputs":[{"indexed":true,"internalType":"uint256","name":"escrowId","type":"uint256"},{"indexed":false,"internalType":"string","name":"cid","type":"string"},{"indexed":false,"internalType":"address","name":"buyer","type":"address"},{"indexed":false,"internalType":"address","name":"seller","type":"address"},{"indexed":false,"internalType":"uint256","name":"amount","type":"uint256"},{"indexed":false,"internalType":"uint256","name":"fee","type":"uint256"},{"indexed":true,"internalType":"enum EscrowHub.EscrowState","name":"state","type":"uint8"}],"name":"EscrowUpdated","type":"event"},{"anonymous":false,"inputs":[{"indexed":false,"internalType":"uint8","name":"version","type":"uint8"}],"name":"Initialized","type":"event"},{"anonymous":false,"inputs":[{"indexed":true,"internalType":"address","name":"previousOwner","type":"address"},{"indexed":true,"internalType":"address","name":"newOwner","type":"address"}],"name":"OwnershipTransferred","type":"event"},{"anonymous":false,"inputs":[{"indexed":true,"internalType":"address","name":"implementation","type":"address"}],"name":"Upgraded","type":"event"},{"inputs":[{"internalType":"uint256","name":"_escrowId","type":"uint256"}],"name":"claimAfterExpire","outputs":[],"stateMutability":"nonpayable","type":"function"},{"inputs":[{"internalType":"uint256","name":"_escrowId","type":"uint256"}],"name":"deliver","outputs":[],"stateMutability":"nonpayable","type":"function"},{"inputs":[{"internalType":"uint256","name":"_escrowId","type":"uint256"}],"name":"deliverByAdmin","outputs":[],"stateMutability":"nonpayable","type":"function"},{"inputs":[{"internalType":"uint256","name":"escrowId","type":"uint256"}],"name":"fetchEscrow","outputs":[{"components":[{"internalType":"uint256","name":"id","type":"uint256"},{"internalType":"string","name":"cid","type":"string"},{"internalType":"address payable","name":"buyer","type":"address"},{"internalType":"address payable","name":"seller","type":"address"},{"internalType":"uint256","name":"amount","type":"uint256"},{"internalType":"uint256","name":"fee","type":"uint256"},{"internalType":"uint256","name":"createdAt","type":"uint256"},{"internalType":"uint256","name":"expireAt","type":"uint256"},{"internalType":"uint256","name":"clearAt","type":"uint256"},{"internalType":"enum EscrowHub.EscrowState","name":"state","type":"uint8"}],"internalType":"struct EscrowHub.Escrow","name":"","type":"tuple"}],"stateMutability":"view","type":"function"},{"inputs":[{"internalType":"uint256","name":"cursor","type":"uint256"},{"internalType":"uint256","name":"perPageCount","type":"uint256"}],"name":"fetchEscrowsPaginated","outputs":[{"components":[{"internalType":"uint256","name":"id","type":"uint256"},{"internalType":"string","name":"cid","type":"string"},{"internalType":"address payable","name":"buyer","type":"address"},{"internalType":"address payable","name":"seller","type":"address"},{"internalType":"uint256","name":"amount","type":"uint256"},{"internalType":"uint256","name":"fee","type":"uint256"},{"internalType":"uint256","name":"createdAt","type":"uint256"},{"internalType":"uint256","name":"expireAt","type":"uint256"},{"internalType":"uint256","name":"clearAt","type":"uint256"},{"internalType":"enum EscrowHub.EscrowState","name":"state","type":"uint8"}],"internalType":"struct EscrowHub.Escrow[]","name":"data","type":"tuple[]"},{"internalType":"uint256","name":"totalItemCount","type":"uint256"},{"internalType":"bool","name":"hasNextPage","type":"bool"},{"internalType":"uint256","name":"nextCursor","type":"uint256"}],"stateMutability":"view","type":"function"},{"inputs":[],"name":"fetchMyEscrows","outputs":[{"components":[{"internalType":"uint256","name":"id","type":"uint256"},{"internalType":"string","name":"cid","type":"string"},{"internalType":"address payable","name":"buyer","type":"address"},{"internalType":"address payable","name":"seller","type":"address"},{"internalType":"uint256","name":"amount","type":"uint256"},{"internalType":"uint256","name":"fee","type":"uint256"},{"internalType":"uint256","name":"createdAt","type":"uint256"},{"internalType":"uint256","name":"expireAt","type":"uint256"},{"internalType":"uint256","name":"clearAt","type":"uint256"},{"internalType":"enum EscrowHub.EscrowState","name":"state","type":"uint8"}],"internalType":"struct EscrowHub.Escrow[]","name":"","type":"tuple[]"}],"stateMutability":"view","type":"function"},{"inputs":[],"name":"initialize","outputs":[],"stateMutability":"nonpayable","type":"function"},{"inputs":[{"internalType":"address","name":"_seller","type":"address"},{"internalType":"string","name":"_cid","type":"string"},{"internalType":"uint256","name":"expireIn","type":"uint256"}],"name":"newEscrow","outputs":[],"stateMutability":"payable","type":"function"},{"inputs":[],"name":"owner","outputs":[{"internalType":"address","name":"","type":"address"}],"stateMutability":"view","type":"function"},{"inputs":[],"name":"proxiableUUID","outputs":[{"internalType":"bytes32","name":"","type":"bytes32"}],"stateMutability":"view","type":"function"},{"inputs":[{"internalType":"uint256","name":"_escrowId","type":"uint256"}],"name":"raiseDispute","outputs":[],"stateMutability":"nonpayable","type":"function"},{"inputs":[{"internalType":"uint256","name":"_escrowId","type":"uint256"}],"name":"refund","outputs":[],"stateMutability":"nonpayable","type":"function"},{"inputs":[],"name":"renounceOwnership","outputs":[],"stateMutability":"nonpayable","type":"function"},{"inputs":[{"internalType":"address","name":"newOwner","type":"address"}],"name":"transferOwnership","outputs":[],"stateMutability":"nonpayable","type":"function"},{"inputs":[{"internalType":"address","name":"newImplementation","type":"address"}],"name":"upgradeTo","outputs":[],"stateMutability":"nonpayable","type":"function"},{"inputs":[{"internalType":"address","name":"newImplementation","type":"address"},{"internalType":"bytes","name":"data","type":"bytes"}],"name":"upgradeToAndCall","outputs":[],"stateMutability":"payable","type":"function"}],"evm":{"bytecode":{"linkReferences":{},"object":"60a0604052306080523480156200001557600080fd5b506200002062000026565b620000e8565b600054610100900460ff1615620000935760405162461bcd60e51b815260206004820152602760248201527f496e697469616c697a61626c653a20636f6e747261637420697320696e697469604482015266616c697a696e6760c81b606482015260840160405180910390fd5b60005460ff9081161015620000e6576000805460ff191660ff9081179091556040519081527f7f26b83ff96e1f2b6a682f133852f6798a09c465da95921460cefb38474024989060200160405180910390a15b565b608051612c2662000120600039600081816109ae015281816109ee01528181610c4c01528181610c8c0152610d1f0152612c266000f3fe6080604052600436106100f35760003560e01c80638129fc1c1161008a578063d0f81cbf11610059578063d0f81cbf14610260578063e52b3b371461028d578063ede6d084146102ad578063f2fde38b146102dd57600080fd5b80638129fc1c146101e35780638da5cb5b146101f85780639b0731af14610220578063a5c1674e1461024057600080fd5b80634f1ef286116100c65780634f1ef2861461018557806352d1902d146101985780636fbac0fa146101bb578063715018a6146101ce57600080fd5b8063261582b9146100f8578063278ecde1146101235780633659cfe6146101455780633bd5d17314610165575b600080fd5b34801561010457600080fd5b5061010d6102fd565b60405161011a9190612548565b60405180910390f35b34801561012f57600080fd5b5061014361013e36600461255b565b61072f565b005b34801561015157600080fd5b50610143610160366004612590565b6109a4565b34801561017157600080fd5b5061014361018036600461255b565b610a83565b610143610193366004612637565b610c42565b3480156101a457600080fd5b506101ad610d12565b60405190815260200161011a565b6101436101c9366004612699565b610dc5565b3480156101da57600080fd5b506101436110a8565b3480156101ef57600080fd5b506101436110bc565b34801561020457600080fd5b506065546040516001600160a01b03909116815260200161011a565b34801561022c57600080fd5b5061014361023b36600461255b565b6111dc565b34801561024c57600080fd5b5061014361025b36600461255b565b6113fd565b34801561026c57600080fd5b5061028061027b36600461255b565b611524565b60405161011a9190612704565b34801561029957600080fd5b506101436102a836600461255b565b611672565b3480156102b957600080fd5b506102cd6102c8366004612717565b611870565b60405161011a9493929190612739565b3480156102e957600080fd5b506101436102f8366004612590565b611d90565b6060336103126065546001600160a01b031690565b6001600160a01b03160361051157600061032b60fb5490565b905060008167ffffffffffffffff811115610348576103486125ab565b60405190808252806020026020018201604052801561038157816020015b61036e612349565b8152602001906001900390816103665790505b50905060005b8281101561050a5760fc600061039e83600161277e565b815260200190815260200160002060405180610140016040529081600082015481526020016001820180546103d290612791565b80601f01602080910402602001604051908101604052809291908181526020018280546103fe90612791565b801561044b5780601f106104205761010080835404028352916020019161044b565b820191906000526020600020905b81548152906001019060200180831161042e57829003601f168201915b505050918352505060028201546001600160a01b0390811660208301526003830154166040820152600480830154606083015260058301546080830152600683015460a0830152600783015460c0830152600883015460e083015260098301546101009092019160ff16908111156104c5576104c561240e565b60048111156104d6576104d661240e565b815250508282815181106104ec576104ec6127c5565b60200260200101819052508080610502906127db565b915050610387565b5092915050565b33600090815260fd602052604081205467ffffffffffffffff811115610539576105396125ab565b60405190808252806020026020018201604052801561057257816020015b61055f612349565b8152602001906001900390816105575790505b50905060005b33600090815260fd60205260409020548110156107295733600090815260fe6020526040812060fc9190816105ae85600161277e565b815260200190815260200160002054815260200190815260200160002060405180610140016040529081600082015481526020016001820180546105f190612791565b80601f016020809104026020016040519081016040528092919081815260200182805461061d90612791565b801561066a5780601f1061063f5761010080835404028352916020019161066a565b820191906000526020600020905b81548152906001019060200180831161064d57829003601f168201915b505050918352505060028201546001600160a01b0390811660208301526003830154166040820152600480830154606083015260058301546080830152600683015460a0830152600783015460c0830152600883015460e083015260098301546101009092019160ff16908111156106e4576106e461240e565b60048111156106f5576106f561240e565b8152505082828151811061070b5761070b6127c5565b60200260200101819052508080610721906127db565b915050610578565b50919050565b600081815260fc602052604090206003015481906001600160a01b03163314806107725750336107676065546001600160a01b031690565b6001600160a01b0316145b6107d85760405162461bcd60e51b815260206004820152602c60248201527f4f6e6c792073656c6c6572206f72204f776e65722063616e20706572666f726d60448201526b103a3434b99030b1ba34b7b760a11b60648201526084015b60405180910390fd5b6002600154036107fa5760405162461bcd60e51b81526004016107cf906127f4565b6002600155600082815260fc602052604081206009015460ff1660048111156108255761082561240e565b148061085657506001600083815260fc602052604090206009015460ff1660048111156108545761085461240e565b145b6108a25760405162461bcd60e51b815260206004820152601960248201527f43616e277420726566756e64207468697320657363726f772e0000000000000060448201526064016107cf565b600082815260fc60205260409020600281015460058201546004909201546001600160a01b03909116916108fc916108da919061277e565b6040518115909202916000818181858888f19350505050158015610902573d6000803e3d6000fd5b50600082815260fc60205260409020426008820155600901805460ff191660049081179091555b600083815260fc6020526040908190206002810154600382015460048301546005840154945188957facfcb6d1fa91c83112102ce242b5502826bbc1a8114bc5030f4b4bd844dc3e6795610994956001909101946001600160a01b039182169491169290919061282b565b60405180910390a3505060018055565b6001600160a01b037f00000000000000000000000000000000000000000000000000000000000000001630036109ec5760405162461bcd60e51b81526004016107cf906128e2565b7f00000000000000000000000000000000000000000000000000000000000000006001600160a01b0316610a35600080516020612baa833981519152546001600160a01b031690565b6001600160a01b031614610a5b5760405162461bcd60e51b81526004016107cf9061292e565b610a6481611e06565b60408051600080825260208201909252610a8091839190611e0e565b50565b600081815260fc602052604090206002015481906001600160a01b03163314610ae65760405162461bcd60e51b81526020600482015260156024820152744f6e6c792042757965722043616e2041636365737360581b60448201526064016107cf565b600260015403610b085760405162461bcd60e51b81526004016107cf906127f4565b6002600155600082815260fc602052604081206009015460ff166004811115610b3357610b3361240e565b14610b805760405162461bcd60e51b815260206004820152601e60248201527f596f752063616e27742064656c69766572207468697320657363726f772e000060448201526064016107cf565b600082815260fc6020526040808220600381015460049091015491516001600160a01b039091169282156108fc02929190818181858888f19350505050158015610bce573d6000803e3d6000fd5b50606554600083815260fc60205260408082206005015490516001600160a01b03909316926108fc82150292818181858888f19350505050158015610c17573d6000803e3d6000fd5b50600082815260fc60205260409020426008820155600901805460ff19166002908117909155610929565b6001600160a01b037f0000000000000000000000000000000000000000000000000000000000000000163003610c8a5760405162461bcd60e51b81526004016107cf906128e2565b7f00000000000000000000000000000000000000000000000000000000000000006001600160a01b0316610cd3600080516020612baa833981519152546001600160a01b031690565b6001600160a01b031614610cf95760405162461bcd60e51b81526004016107cf9061292e565b610d0282611e06565b610d0e82826001611e0e565b5050565b6000306001600160a01b037f00000000000000000000000000000000000000000000000000000000000000001614610db25760405162461bcd60e51b815260206004820152603860248201527f555550535570677261646561626c653a206d757374206e6f742062652063616c60448201527f6c6564207468726f7567682064656c656761746563616c6c000000000000000060648201526084016107cf565b50600080516020612baa83398151915290565b600260015403610de75760405162461bcd60e51b81526004016107cf906127f4565b6002600155610dfa60fb80546001019055565b6000610e0560fb5490565b9050662386f26fc10000341015610e705760405162461bcd60e51b815260206004820152602960248201527f457363726f77206d757374206265206c6172676572207468656e206d696e696d6044820152681d5b48185b5bdd5b9d60ba1b60648201526084016107cf565b60006064610e7f60013461297a565b610e899190612991565b90506000610e9782346129b3565b9050604051806101400160405280848152602001868152602001336001600160a01b03168152602001876001600160a01b031681526020018281526020018381526020014281526020018581526020016000815260200160006004811115610f0157610f0161240e565b9052600084815260fc6020908152604090912082518155908201516001820190610f2b9082612a14565b5060408201516002820180546001600160a01b039283166001600160a01b0319918216179091556060840151600384018054919093169116179055608082015160048083019190915560a0830151600583015560c0830151600683015560e0830151600783015561010083015160088301556101208301516009830180549192909160ff1916906001908490811115610fc657610fc661240e565b02179055505033600090815260fd6020526040902054610fe89150600161277e565b33600090815260fd6020818152604080842085905560fe82528084209484529381528383208790556001600160a01b038a16835252205461102a90600161277e565b6001600160a01b038716600090815260fd6020908152604080832084905560fe825280832093835292905281812085905590518391839186917fb9e71d1f685b313accb4809b03f62dc9601718815d3758ed626f3802e7f005b191611094918b9133918e91612ad4565b60405180910390a450506001805550505050565b6110b0611f7e565b6110ba6000611fd8565b565b600054610100900460ff16158080156110dc5750600054600160ff909116105b806110f65750303b1580156110f6575060005460ff166001145b6111595760405162461bcd60e51b815260206004820152602e60248201527f496e697469616c697a61626c653a20636f6e747261637420697320616c72656160448201526d191e481a5b9a5d1a585b1a5e995960921b60648201526084016107cf565b6000805460ff19166001179055801561117c576000805461ff0019166101001790555b61118461202a565b61118c612059565b611194612088565b8015610a80576000805461ff0019169055604051600181527f7f26b83ff96e1f2b6a682f133852f6798a09c465da95921460cefb38474024989060200160405180910390a150565b600081815260fc602052604090206003015481906001600160a01b031633146112405760405162461bcd60e51b81526020600482015260166024820152754f6e6c792053656c6c65722043616e2041636365737360501b60448201526064016107cf565b6002600154036112625760405162461bcd60e51b81526004016107cf906127f4565b6002600155600082815260fc60205260409020600701544210156112c85760405162461bcd60e51b815260206004820152601860248201527f457363726f772069736e2774206578706972656420796574000000000000000060448201526064016107cf565b600082815260fc602052604081206009015460ff1660048111156112ee576112ee61240e565b1461133b5760405162461bcd60e51b815260206004820152601c60248201527f596f752063616e277420636c61696d207468697320657363726f772e0000000060448201526064016107cf565b600082815260fc6020526040808220600381015460049091015491516001600160a01b039091169282156108fc02929190818181858888f19350505050158015611389573d6000803e3d6000fd5b50606554600083815260fc60205260408082206005015490516001600160a01b03909316926108fc82150292818181858888f193505050501580156113d2573d6000803e3d6000fd5b50600082815260fc60205260409020426008820155600901805460ff19166003908117909155610929565b600081815260fc602052604090206002015481906001600160a01b031633146114605760405162461bcd60e51b81526020600482015260156024820152744f6e6c792042757965722043616e2041636365737360581b60448201526064016107cf565b6002600154036114825760405162461bcd60e51b81526004016107cf906127f4565b6002600155600082815260fc602052604081206009015460ff1660048111156114ad576114ad61240e565b146114fa5760405162461bcd60e51b815260206004820152601e60248201527f596f752063616e27742064656c69766572207468697320657363726f772e000060448201526064016107cf565b600082815260fc60205260409020426008820155600901805460ff19166001908117909155610929565b61152c612349565b60fc6000838152602001908152602001600020604051806101400160405290816000820154815260200160018201805461156590612791565b80601f016020809104026020016040519081016040528092919081815260200182805461159190612791565b80156115de5780601f106115b3576101008083540402835291602001916115de565b820191906000526020600020905b8154815290600101906020018083116115c157829003601f168201915b505050918352505060028201546001600160a01b0390811660208301526003830154166040820152600480830154606083015260058301546080830152600683015460a0830152600783015460c0830152600883015460e083015260098301546101009092019160ff16908111156116585761165861240e565b60048111156116695761166961240e565b90525092915050565b61167a611f7e565b60026001540361169c5760405162461bcd60e51b81526004016107cf906127f4565b60026001908155600082815260fc602052604090206009015460ff1660048111156116c9576116c961240e565b146117475760405162461bcd60e51b815260206004820152604260248201527f596f752063616e27742064656c69766572207468697320657363726f772e204f60448201527f6e6c79204f776e65722063616e20706572666f726d207468697320616374696f606482015261371760f11b608482015260a4016107cf565b600081815260fc6020526040808220600381015460049091015491516001600160a01b039091169282156108fc02929190818181858888f19350505050158015611795573d6000803e3d6000fd5b50606554600082815260fc60205260408082206005015490516001600160a01b03909316926108fc82150292818181858888f193505050501580156117de573d6000803e3d6000fd5b50600081815260fc60205260409081902042600882015560098101805460ff19166002908117909155808201546003830154600484015460058501549551939587957facfcb6d1fa91c83112102ce242b5502826bbc1a8114bc5030f4b4bd844dc3e6795611861956001909201946001600160a01b03928316949216929061282b565b60405180910390a35060018055565b606060008080843361188a6065546001600160a01b031690565b6001600160a01b031603611ae75760006118a360fb5490565b905060016118b189836129b3565b8311156118cd576118c289836129b3565b9250600090506118e1565b6118d789836129b3565b83036118e1575060005b60008367ffffffffffffffff8111156118fc576118fc6125ab565b60405190808252806020026020018201604052801561193557816020015b611922612349565b81526020019060019003908161191a5790505b50905060005b84811015611ac85760fc6000611951838e61277e565b61195c90600161277e565b8152602001908152602001600020604051806101400160405290816000820154815260200160018201805461199090612791565b80601f01602080910402602001604051908101604052809291908181526020018280546119bc90612791565b8015611a095780601f106119de57610100808354040283529160200191611a09565b820191906000526020600020905b8154815290600101906020018083116119ec57829003601f168201915b505050918352505060028201546001600160a01b0390811660208301526003830154166040820152600480830154606083015260058301546080830152600683015460a0830152600783015460c0830152600883015460e083015260098301546101009092019160ff1690811115611a8357611a8361240e565b6004811115611a9457611a9461240e565b81525050828281518110611aaa57611aaa6127c5565b60200260200101819052508080611ac0906127db565b91505061193b565b50808383611ad6878e61277e565b975097509750975050505050611d87565b33600090815260fd6020526040902054600190611b059089906129b3565b821115611b325733600090815260fd6020526040902054611b279089906129b3565b915060009050611b57565b33600090815260fd6020526040902054611b4d9089906129b3565b8203611b57575060005b60008267ffffffffffffffff811115611b7257611b726125ab565b604051908082528060200260200182016040528015611bab57816020015b611b98612349565b815260200190600190039081611b905790505b50905060005b83811015611d5d5733600090815260fe6020526040812060fc919081611bd7858f61277e565b611be290600161277e565b81526020019081526020016000205481526020019081526020016000206040518061014001604052908160008201548152602001600182018054611c2590612791565b80601f0160208091040260200160405190810160405280929190818152602001828054611c5190612791565b8015611c9e5780601f10611c7357610100808354040283529160200191611c9e565b820191906000526020600020905b815481529060010190602001808311611c8157829003601f168201915b505050918352505060028201546001600160a01b0390811660208301526003830154166040820152600480830154606083015260058301546080830152600683015460a0830152600783015460c0830152600883015460e083015260098301546101009092019160ff1690811115611d1857611d1861240e565b6004811115611d2957611d2961240e565b81525050828281518110611d3f57611d3f6127c5565b60200260200101819052508080611d55906127db565b915050611bb1565b5033600090815260fd6020526040902054819083611d7b868d61277e565b96509650965096505050505b92959194509250565b611d98611f7e565b6001600160a01b038116611dfd5760405162461bcd60e51b815260206004820152602660248201527f4f776e61626c653a206e6577206f776e657220697320746865207a65726f206160448201526564647265737360d01b60648201526084016107cf565b610a8081611fd8565b610a80611f7e565b7f4910fdfa16fed3260ed0e7147f7cc6da11a60208b5b9406d12a635614ffd91435460ff1615611e4657611e41836120af565b505050565b826001600160a01b03166352d1902d6040518163ffffffff1660e01b8152600401602060405180830381865afa925050508015611ea0575060408051601f3d908101601f19168201909252611e9d91810190612b16565b60015b611f035760405162461bcd60e51b815260206004820152602e60248201527f45524331393637557067726164653a206e657720696d706c656d656e7461746960448201526d6f6e206973206e6f74205555505360901b60648201526084016107cf565b600080516020612baa8339815191528114611f725760405162461bcd60e51b815260206004820152602960248201527f45524331393637557067726164653a20756e737570706f727465642070726f786044820152681a58589b195555525160ba1b60648201526084016107cf565b50611e4183838361214b565b6065546001600160a01b031633146110ba5760405162461bcd60e51b815260206004820181905260248201527f4f776e61626c653a2063616c6c6572206973206e6f7420746865206f776e657260448201526064016107cf565b606580546001600160a01b038381166001600160a01b0319831681179093556040519116919082907f8be0079c531659141344cd1fd0a4f28419497f9722a3daafe3b4186f6b6457e090600090a35050565b600054610100900460ff166120515760405162461bcd60e51b81526004016107cf90612b2f565b6110ba612176565b600054610100900460ff166120805760405162461bcd60e51b81526004016107cf90612b2f565b6110ba6121a3565b600054610100900460ff166110ba5760405162461bcd60e51b81526004016107cf90612b2f565b6001600160a01b0381163b61211c5760405162461bcd60e51b815260206004820152602d60248201527f455243313936373a206e657720696d706c656d656e746174696f6e206973206e60448201526c1bdd08184818dbdb9d1c9858dd609a1b60648201526084016107cf565b600080516020612baa83398151915280546001600160a01b0319166001600160a01b0392909216919091179055565b612154836121d3565b6000825111806121615750805b15611e41576121708383612213565b50505050565b600054610100900460ff1661219d5760405162461bcd60e51b81526004016107cf90612b2f565b60018055565b600054610100900460ff166121ca5760405162461bcd60e51b81526004016107cf90612b2f565b6110ba33611fd8565b6121dc816120af565b6040516001600160a01b038216907fbc7cd75a20ee27fd9adebab32041f755214dbc6bffa90cc0225b39da2e5c2d3b90600090a250565b60606001600160a01b0383163b61227b5760405162461bcd60e51b815260206004820152602660248201527f416464726573733a2064656c65676174652063616c6c20746f206e6f6e2d636f6044820152651b9d1c9858dd60d21b60648201526084016107cf565b600080846001600160a01b0316846040516122969190612b7a565b600060405180830381855af49150503d80600081146122d1576040519150601f19603f3d011682016040523d82523d6000602084013e6122d6565b606091505b50915091506122fe8282604051806060016040528060278152602001612bca60279139612309565b925050505b92915050565b60608315612318575081612342565b8251156123285782518084602001fd5b8160405162461bcd60e51b81526004016107cf9190612b96565b9392505050565b604051806101400160405280600081526020016060815260200160006001600160a01b0316815260200160006001600160a01b031681526020016000815260200160008152602001600081526020016000815260200160008152602001600060048111156123b9576123b961240e565b905290565b60005b838110156123d95781810151838201526020016123c1565b50506000910152565b600081518084526123fa8160208601602086016123be565b601f01601f19169290920160200192915050565b634e487b7160e01b600052602160045260246000fd5b6005811061244257634e487b7160e01b600052602160045260246000fd5b9052565b6000610140825184526020830151816020860152612466828601826123e2565b915050604083015161248360408601826001600160a01b03169052565b50606083015161249e60608601826001600160a01b03169052565b506080830151608085015260a083015160a085015260c083015160c085015260e083015160e0850152610100808401518186015250610120808401516124e682870182612424565b5090949350505050565b600082825180855260208086019550808260051b84010181860160005b8481101561253b57601f19868403018952612529838351612446565b9884019892509083019060010161250d565b5090979650505050505050565b60208152600061234260208301846124f0565b60006020828403121561256d57600080fd5b5035919050565b80356001600160a01b038116811461258b57600080fd5b919050565b6000602082840312156125a257600080fd5b61234282612574565b634e487b7160e01b600052604160045260246000fd5b600067ffffffffffffffff808411156125dc576125dc6125ab565b604051601f8501601f19908116603f01168101908282118183101715612604576126046125ab565b8160405280935085815286868601111561261d57600080fd5b858560208301376000602087830101525050509392505050565b6000806040838503121561264a57600080fd5b61265383612574565b9150602083013567ffffffffffffffff81111561266f57600080fd5b8301601f8101851361268057600080fd5b61268f858235602084016125c1565b9150509250929050565b6000806000606084860312156126ae57600080fd5b6126b784612574565b9250602084013567ffffffffffffffff8111156126d357600080fd5b8401601f810186136126e457600080fd5b6126f3868235602084016125c1565b925050604084013590509250925092565b6020815260006123426020830184612446565b6000806040838503121561272a57600080fd5b50508035926020909101359150565b60808152600061274c60808301876124f0565b6020830195909552509115156040830152606090910152919050565b634e487b7160e01b600052601160045260246000fd5b8082018082111561230357612303612768565b600181811c908216806127a557607f821691505b60208210810361072957634e487b7160e01b600052602260045260246000fd5b634e487b7160e01b600052603260045260246000fd5b6000600182016127ed576127ed612768565b5060010190565b6020808252601f908201527f5265656e7472616e637947756172643a207265656e7472616e742063616c6c00604082015260600190565b60a08152600080875461283d81612791565b8060a086015260c060018084166000811461285f5760018114612879576128aa565b60ff1985168884015283151560051b8801830195506128aa565b8c60005260208060002060005b868110156128a15781548b8201870152908401908201612886565b8a018501975050505b505050506001600160a01b03881660208501525090506001600160a01b03851660408301526060820193909352608001529392505050565b6020808252602c908201527f46756e6374696f6e206d7573742062652063616c6c6564207468726f7567682060408201526b19195b1959d85d1958d85b1b60a21b606082015260800190565b6020808252602c908201527f46756e6374696f6e206d7573742062652063616c6c6564207468726f7567682060408201526b6163746976652070726f787960a01b606082015260800190565b808202811582820484141761230357612303612768565b6000826129ae57634e487b7160e01b600052601260045260246000fd5b500490565b8181038181111561230357612303612768565b601f821115611e4157600081815260208120601f850160051c810160208610156129ed5750805b601f850160051c820191505b81811015612a0c578281556001016129f9565b505050505050565b815167ffffffffffffffff811115612a2e57612a2e6125ab565b612a4281612a3c8454612791565b846129c6565b602080601f831160018114612a775760008415612a5f5750858301515b600019600386901b1c1916600185901b178555612a0c565b600085815260208120601f198616915b82811015612aa657888601518255948401946001909101908401612a87565b5085821015612ac45787850151600019600388901b60f8161c191681555b5050505050600190811b01905550565b608081526000612ae760808301876123e2565b6001600160a01b038681166020850152851660408401529050612b0d6060830184612424565b95945050505050565b600060208284031215612b2857600080fd5b5051919050565b6020808252602b908201527f496e697469616c697a61626c653a20636f6e7472616374206973206e6f74206960408201526a6e697469616c697a696e6760a81b606082015260800190565b60008251612b8c8184602087016123be565b9190910192915050565b60208152600061234260208301846123e256fe360894a13ba1a3210667c828492db98dca3e2076cc3735a920a3ca505d382bbc416464726573733a206c6f772d6c6576656c2064656c65676174652063616c6c206661696c6564a2646970667358221220e1c14927386a6b65f4f31d8c0724400150de1a227bed4d41b958c4c267bb0b7364736f6c63430008110033","opcodes":"PUSH1 0xA0 PUSH1 0x40 MSTORE ADDRESS PUSH1 0x80 MSTORE CALLVALUE DUP1 ISZERO PUSH3 0x15 JUMPI PUSH1 0x0 DUP1 REVERT JUMPDEST POP PUSH3 0x20 PUSH3 0x26 JUMP JUMPDEST PUSH3 0xE8 JUMP JUMPDEST PUSH1 0x0 SLOAD PUSH2 0x100 SWAP1 DIV PUSH1 0xFF AND ISZERO PUSH3 0x93 JUMPI PUSH1 0x40 MLOAD PUSH3 0x461BCD PUSH1 0xE5 SHL DUP2 MSTORE PUSH1 0x20 PUSH1 0x4 DUP3 ADD MSTORE PUSH1 0x27 PUSH1 0x24 DUP3 ADD MSTORE PUSH32 0x496E697469616C697A61626C653A20636F6E747261637420697320696E697469 PUSH1 0x44 DUP3 ADD MSTORE PUSH7 0x616C697A696E67 PUSH1 0xC8 SHL PUSH1 0x64 DUP3 ADD MSTORE PUSH1 0x84 ADD PUSH1 0x40 MLOAD DUP1 SWAP2 SUB SWAP1 REVERT JUMPDEST PUSH1 0x0 SLOAD PUSH1 0xFF SWAP1 DUP2 AND LT ISZERO PUSH3 0xE6 JUMPI PUSH1 0x0 DUP1 SLOAD PUSH1 0xFF NOT AND PUSH1 0xFF SWAP1 DUP2 OR SWAP1 SWAP2 SSTORE PUSH1 0x40 MLOAD SWAP1 DUP2 MSTORE PUSH32 0x7F26B83FF96E1F2B6A682F133852F6798A09C465DA95921460CEFB3847402498 SWAP1 PUSH1 0x20 ADD PUSH1 0x40 MLOAD DUP1 SWAP2 SUB SWAP1 LOG1 JUMPDEST JUMP JUMPDEST PUSH1 0x80 MLOAD PUSH2 0x2C26 PUSH3 0x120 PUSH1 0x0 CODECOPY PUSH1 0x0 DUP2 DUP2 PUSH2 0x9AE ADD MSTORE DUP2 DUP2 PUSH2 0x9EE ADD MSTORE DUP2 DUP2 PUSH2 0xC4C ADD MSTORE DUP2 DUP2 PUSH2 0xC8C ADD MSTORE PUSH2 0xD1F ADD MSTORE PUSH2 0x2C26 PUSH1 0x0 RETURN INVALID PUSH1 0x80 PUSH1 0x40 MSTORE PUSH1 0x4 CALLDATASIZE LT PUSH2 0xF3 JUMPI PUSH1 0x0 CALLDATALOAD PUSH1 0xE0 SHR DUP1 PUSH4 0x8129FC1C GT PUSH2 0x8A JUMPI DUP1 PUSH4 0xD0F81CBF GT PUSH2 0x59 JUMPI DUP1 PUSH4 0xD0F81CBF EQ PUSH2 0x260 JUMPI DUP1 PUSH4 0xE52B3B37 EQ PUSH2 0x28D JUMPI DUP1 PUSH4 0xEDE6D084 EQ PUSH2 0x2AD JUMPI DUP1 PUSH4 0xF2FDE38B EQ PUSH2 0x2DD JUMPI PUSH1 0x0 DUP1 REVERT JUMPDEST DUP1 PUSH4 0x8129FC1C EQ PUSH2 0x1E3 JUMPI DUP1 PUSH4 0x8DA5CB5B EQ PUSH2 0x1F8 JUMPI DUP1 PUSH4 0x9B0731AF EQ PUSH2 0x220 JUMPI DUP1 PUSH4 0xA5C1674E EQ PUSH2 0x240 JUMPI PUSH1 0x0 DUP1 REVERT JUMPDEST DUP1 PUSH4 0x4F1EF286 GT PUSH2 0xC6 JUMPI DUP1 PUSH4 0x4F1EF286 EQ PUSH2 0x185 JUMPI DUP1 PUSH4 0x52D1902D EQ PUSH2 0x198 JUMPI DUP1 PUSH4 0x6FBAC0FA EQ PUSH2 0x1BB JUMPI DUP1 PUSH4 0x715018A6 EQ PUSH2 0x1CE JUMPI PUSH1 0x0 DUP1 REVERT JUMPDEST DUP1 PUSH4 0x261582B9 EQ PUSH2 0xF8 JUMPI DUP1 PUSH4 0x278ECDE1 EQ PUSH2 0x123 JUMPI DUP1 PUSH4 0x3659CFE6 EQ PUSH2 0x145 JUMPI DUP1 PUSH4 0x3BD5D173 EQ PUSH2 0x165 JUMPI JUMPDEST PUSH1 0x0 DUP1 REVERT JUMPDEST CALLVALUE DUP1 ISZERO PUSH2 0x104 JUMPI PUSH1 0x0 DUP1 REVERT JUMPDEST POP PUSH2 0x10D PUSH2 0x2FD JUMP JUMPDEST PUSH1 0x40 MLOAD PUSH2 0x11A SWAP2 SWAP1 PUSH2 0x2548 JUMP JUMPDEST PUSH1 0x40 MLOAD DUP1 SWAP2 SUB SWAP1 RETURN JUMPDEST CALLVALUE DUP1 ISZERO PUSH2 0x12F JUMPI PUSH1 0x0 DUP1 REVERT JUMPDEST POP PUSH2 0x143 PUSH2 0x13E CALLDATASIZE PUSH1 0x4 PUSH2 0x255B JUMP JUMPDEST PUSH2 0x72F JUMP JUMPDEST STOP JUMPDEST CALLVALUE DUP1 ISZERO PUSH2 0x151 JUMPI PUSH1 0x0 DUP1 REVERT JUMPDEST POP PUSH2 0x143 PUSH2 0x160 CALLDATASIZE PUSH1 0x4 PUSH2 0x2590 JUMP JUMPDEST PUSH2 0x9A4 JUMP JUMPDEST CALLVALUE DUP1 ISZERO PUSH2 0x171 JUMPI PUSH1 0x0 DUP1 REVERT JUMPDEST POP PUSH2 0x143 PUSH2 0x180 CALLDATASIZE PUSH1 0x4 PUSH2 0x255B JUMP JUMPDEST PUSH2 0xA83 JUMP JUMPDEST PUSH2 0x143 PUSH2 0x193 CALLDATASIZE PUSH1 0x4 PUSH2 0x2637 JUMP JUMPDEST PUSH2 0xC42 JUMP JUMPDEST CALLVALUE DUP1 ISZERO PUSH2 0x1A4 JUMPI PUSH1 0x0 DUP1 REVERT JUMPDEST POP PUSH2 0x1AD PUSH2 0xD12 JUMP JUMPDEST PUSH1 0x40 MLOAD SWAP1 DUP2 MSTORE PUSH1 0x20 ADD PUSH2 0x11A JUMP JUMPDEST PUSH2 0x143 PUSH2 0x1C9 CALLDATASIZE PUSH1 0x4 PUSH2 0x2699 JUMP JUMPDEST PUSH2 0xDC5 JUMP JUMPDEST CALLVALUE DUP1 ISZERO PUSH2 0x1DA JUMPI PUSH1 0x0 DUP1 REVERT JUMPDEST POP PUSH2 0x143 PUSH2 0x10A8 JUMP JUMPDEST CALLVALUE DUP1 ISZERO PUSH2 0x1EF JUMPI PUSH1 0x0 DUP1 REVERT JUMPDEST POP PUSH2 0x143 PUSH2 0x10BC JUMP JUMPDEST CALLVALUE DUP1 ISZERO PUSH2 0x204 JUMPI PUSH1 0x0 DUP1 REVERT JUMPDEST POP PUSH1 0x65 SLOAD PUSH1 0x40 MLOAD PUSH1 0x1 PUSH1 0x1 PUSH1 0xA0 SHL SUB SWAP1 SWAP2 AND DUP2 MSTORE PUSH1 0x20 ADD PUSH2 0x11A JUMP JUMPDEST CALLVALUE DUP1 ISZERO PUSH2 0x22C JUMPI PUSH1 0x0 DUP1 REVERT JUMPDEST POP PUSH2 0x143 PUSH2 0x23B CALLDATASIZE PUSH1 0x4 PUSH2 0x255B JUMP JUMPDEST PUSH2 0x11DC JUMP JUMPDEST CALLVALUE DUP1 ISZERO PUSH2 0x24C JUMPI PUSH1 0x0 DUP1 REVERT JUMPDEST POP PUSH2 0x143 PUSH2 0x25B CALLDATASIZE PUSH1 0x4 PUSH2 0x255B JUMP JUMPDEST PUSH2 0x13FD JUMP JUMPDEST CALLVALUE DUP1 ISZERO PUSH2 0x26C JUMPI PUSH1 0x0 DUP1 REVERT JUMPDEST POP PUSH2 0x280 PUSH2 0x27B CALLDATASIZE PUSH1 0x4 PUSH2 0x255B JUMP JUMPDEST PUSH2 0x1524 JUMP JUMPDEST PUSH1 0x40 MLOAD PUSH2 0x11A SWAP2 SWAP1 PUSH2 0x2704 JUMP JUMPDEST CALLVALUE DUP1 ISZERO PUSH2 0x299 JUMPI PUSH1 0x0 DUP1 REVERT JUMPDEST POP PUSH2 0x143 PUSH2 0x2A8 CALLDATASIZE PUSH1 0x4 PUSH2 0x255B JUMP JUMPDEST PUSH2 0x1672 JUMP JUMPDEST CALLVALUE DUP1 ISZERO PUSH2 0x2B9 JUMPI PUSH1 0x0 DUP1 REVERT JUMPDEST POP PUSH2 0x2CD PUSH2 0x2C8 CALLDATASIZE PUSH1 0x4 PUSH2 0x2717 JUMP JUMPDEST PUSH2 0x1870 JUMP JUMPDEST PUSH1 0x40 MLOAD PUSH2 0x11A SWAP5 SWAP4 SWAP3 SWAP2 SWAP1 PUSH2 0x2739 JUMP JUMPDEST CALLVALUE DUP1 ISZERO PUSH2 0x2E9 JUMPI PUSH1 0x0 DUP1 REVERT JUMPDEST POP PUSH2 0x143 PUSH2 0x2F8 CALLDATASIZE PUSH1 0x4 PUSH2 0x2590 JUMP JUMPDEST PUSH2 0x1D90 JUMP JUMPDEST PUSH1 0x60 CALLER PUSH2 0x312 PUSH1 0x65 SLOAD PUSH1 0x1 PUSH1 0x1 PUSH1 0xA0 SHL SUB AND SWAP1 JUMP JUMPDEST PUSH1 0x1 PUSH1 0x1 PUSH1 0xA0 SHL SUB AND SUB PUSH2 0x511 JUMPI PUSH1 0x0 PUSH2 0x32B PUSH1 0xFB SLOAD SWAP1 JUMP JUMPDEST SWAP1 POP PUSH1 0x0 DUP2 PUSH8 0xFFFFFFFFFFFFFFFF DUP2 GT ISZERO PUSH2 0x348 JUMPI PUSH2 0x348 PUSH2 0x25AB JUMP JUMPDEST PUSH1 0x40 MLOAD SWAP1 DUP1 DUP3 MSTORE DUP1 PUSH1 0x20 MUL PUSH1 0x20 ADD DUP3 ADD PUSH1 0x40 MSTORE DUP1 ISZERO PUSH2 0x381 JUMPI DUP2 PUSH1 0x20 ADD JUMPDEST PUSH2 0x36E PUSH2 0x2349 JUMP JUMPDEST DUP2 MSTORE PUSH1 0x20 ADD SWAP1 PUSH1 0x1 SWAP1 SUB SWAP1 DUP2 PUSH2 0x366 JUMPI SWAP1 POP JUMPDEST POP SWAP1 POP PUSH1 0x0 JUMPDEST DUP3 DUP2 LT ISZERO PUSH2 0x50A JUMPI PUSH1 0xFC PUSH1 0x0 PUSH2 0x39E DUP4 PUSH1 0x1 PUSH2 0x277E JUMP JUMPDEST DUP2 MSTORE PUSH1 0x20 ADD SWAP1 DUP2 MSTORE PUSH1 0x20 ADD PUSH1 0x0 KECCAK256 PUSH1 0x40 MLOAD DUP1 PUSH2 0x140 ADD PUSH1 0x40 MSTORE SWAP1 DUP2 PUSH1 0x0 DUP3 ADD SLOAD DUP2 MSTORE PUSH1 0x20 ADD PUSH1 0x1 DUP3 ADD DUP1 SLOAD PUSH2 0x3D2 SWAP1 PUSH2 0x2791 JUMP JUMPDEST DUP1 PUSH1 0x1F ADD PUSH1 0x20 DUP1 SWAP2 DIV MUL PUSH1 0x20 ADD PUSH1 0x40 MLOAD SWAP1 DUP2 ADD PUSH1 0x40 MSTORE DUP1 SWAP3 SWAP2 SWAP1 DUP2 DUP2 MSTORE PUSH1 0x20 ADD DUP3 DUP1 SLOAD PUSH2 0x3FE SWAP1 PUSH2 0x2791 JUMP JUMPDEST DUP1 ISZERO PUSH2 0x44B JUMPI DUP1 PUSH1 0x1F LT PUSH2 0x420 JUMPI PUSH2 0x100 DUP1 DUP4 SLOAD DIV MUL DUP4 MSTORE SWAP2 PUSH1 0x20 ADD SWAP2 PUSH2 0x44B JUMP JUMPDEST DUP3 ADD SWAP2 SWAP1 PUSH1 0x0 MSTORE PUSH1 0x20 PUSH1 0x0 KECCAK256 SWAP1 JUMPDEST DUP2 SLOAD DUP2 MSTORE SWAP1 PUSH1 0x1 ADD SWAP1 PUSH1 0x20 ADD DUP1 DUP4 GT PUSH2 0x42E JUMPI DUP3 SWAP1 SUB PUSH1 0x1F AND DUP3 ADD SWAP2 JUMPDEST POP POP POP SWAP2 DUP4 MSTORE POP POP PUSH1 0x2 DUP3 ADD SLOAD PUSH1 0x1 PUSH1 0x1 PUSH1 0xA0 SHL SUB SWAP1 DUP2 AND PUSH1 0x20 DUP4 ADD MSTORE PUSH1 0x3 DUP4 ADD SLOAD AND PUSH1 0x40 DUP3 ADD MSTORE PUSH1 0x4 DUP1 DUP4 ADD SLOAD PUSH1 0x60 DUP4 ADD MSTORE PUSH1 0x5 DUP4 ADD SLOAD PUSH1 0x80 DUP4 ADD MSTORE PUSH1 0x6 DUP4 ADD SLOAD PUSH1 0xA0 DUP4 ADD MSTORE PUSH1 0x7 DUP4 ADD SLOAD PUSH1 0xC0 DUP4 ADD MSTORE PUSH1 0x8 DUP4 ADD SLOAD PUSH1 0xE0 DUP4 ADD MSTORE PUSH1 0x9 DUP4 ADD SLOAD PUSH2 0x100 SWAP1 SWAP3 ADD SWAP2 PUSH1 0xFF AND SWAP1 DUP2 GT ISZERO PUSH2 0x4C5 JUMPI PUSH2 0x4C5 PUSH2 0x240E JUMP JUMPDEST PUSH1 0x4 DUP2 GT ISZERO PUSH2 0x4D6 JUMPI PUSH2 0x4D6 PUSH2 0x240E JUMP JUMPDEST DUP2 MSTORE POP POP DUP3 DUP3 DUP2 MLOAD DUP2 LT PUSH2 0x4EC JUMPI PUSH2 0x4EC PUSH2 0x27C5 JUMP JUMPDEST PUSH1 0x20 MUL PUSH1 0x20 ADD ADD DUP2 SWAP1 MSTORE POP DUP1 DUP1 PUSH2 0x502 SWAP1 PUSH2 0x27DB JUMP JUMPDEST SWAP2 POP POP PUSH2 0x387 JUMP JUMPDEST POP SWAP3 SWAP2 POP POP JUMP JUMPDEST CALLER PUSH1 0x0 SWAP1 DUP2 MSTORE PUSH1 0xFD PUSH1 0x20 MSTORE PUSH1 0x40 DUP2 KECCAK256 SLOAD PUSH8 0xFFFFFFFFFFFFFFFF DUP2 GT ISZERO PUSH2 0x539 JUMPI PUSH2 0x539 PUSH2 0x25AB JUMP JUMPDEST PUSH1 0x40 MLOAD SWAP1 DUP1 DUP3 MSTORE DUP1 PUSH1 0x20 MUL PUSH1 0x20 ADD DUP3 ADD PUSH1 0x40 MSTORE DUP1 ISZERO PUSH2 0x572 JUMPI DUP2 PUSH1 0x20 ADD JUMPDEST PUSH2 0x55F PUSH2 0x2349 JUMP JUMPDEST DUP2 MSTORE PUSH1 0x20 ADD SWAP1 PUSH1 0x1 SWAP1 SUB SWAP1 DUP2 PUSH2 0x557 JUMPI SWAP1 POP JUMPDEST POP SWAP1 POP PUSH1 0x0 JUMPDEST CALLER PUSH1 0x0 SWAP1 DUP2 MSTORE PUSH1 0xFD PUSH1 0x20 MSTORE PUSH1 0x40 SWAP1 KECCAK256 SLOAD DUP2 LT ISZERO PUSH2 0x729 JUMPI CALLER PUSH1 0x0 SWAP1 DUP2 MSTORE PUSH1 0xFE PUSH1 0x20 MSTORE PUSH1 0x40 DUP2 KECCAK256 PUSH1 0xFC SWAP2 SWAP1 DUP2 PUSH2 0x5AE DUP6 PUSH1 0x1 PUSH2 0x277E JUMP JUMPDEST DUP2 MSTORE PUSH1 0x20 ADD SWAP1 DUP2 MSTORE PUSH1 0x20 ADD PUSH1 0x0 KECCAK256 SLOAD DUP2 MSTORE PUSH1 0x20 ADD SWAP1 DUP2 MSTORE PUSH1 0x20 ADD PUSH1 0x0 KECCAK256 PUSH1 0x40 MLOAD DUP1 PUSH2 0x140 ADD PUSH1 0x40 MSTORE SWAP1 DUP2 PUSH1 0x0 DUP3 ADD SLOAD DUP2 MSTORE PUSH1 0x20 ADD PUSH1 0x1 DUP3 ADD DUP1 SLOAD PUSH2 0x5F1 SWAP1 PUSH2 0x2791 JUMP JUMPDEST DUP1 PUSH1 0x1F ADD PUSH1 0x20 DUP1 SWAP2 DIV MUL PUSH1 0x20 ADD PUSH1 0x40 MLOAD SWAP1 DUP2 ADD PUSH1 0x40 MSTORE DUP1 SWAP3 SWAP2 SWAP1 DUP2 DUP2 MSTORE PUSH1 0x20 ADD DUP3 DUP1 SLOAD PUSH2 0x61D SWAP1 PUSH2 0x2791 JUMP JUMPDEST DUP1 ISZERO PUSH2 0x66A JUMPI DUP1 PUSH1 0x1F LT PUSH2 0x63F JUMPI PUSH2 0x100 DUP1 DUP4 SLOAD DIV MUL DUP4 MSTORE SWAP2 PUSH1 0x20 ADD SWAP2 PUSH2 0x66A JUMP JUMPDEST DUP3 ADD SWAP2 SWAP1 PUSH1 0x0 MSTORE PUSH1 0x20 PUSH1 0x0 KECCAK256 SWAP1 JUMPDEST DUP2 SLOAD DUP2 MSTORE SWAP1 PUSH1 0x1 ADD SWAP1 PUSH1 0x20 ADD DUP1 DUP4 GT PUSH2 0x64D JUMPI DUP3 SWAP1 SUB PUSH1 0x1F AND DUP3 ADD SWAP2 JUMPDEST POP POP POP SWAP2 DUP4 MSTORE POP POP PUSH1 0x2 DUP3 ADD SLOAD PUSH1 0x1 PUSH1 0x1 PUSH1 0xA0 SHL SUB SWAP1 DUP2 AND PUSH1 0x20 DUP4 ADD MSTORE PUSH1 0x3 DUP4 ADD SLOAD AND PUSH1 0x40 DUP3 ADD MSTORE PUSH1 0x4 DUP1 DUP4 ADD SLOAD PUSH1 0x60 DUP4 ADD MSTORE PUSH1 0x5 DUP4 ADD SLOAD PUSH1 0x80 DUP4 ADD MSTORE PUSH1 0x6 DUP4 ADD SLOAD PUSH1 0xA0 DUP4 ADD MSTORE PUSH1 0x7 DUP4 ADD SLOAD PUSH1 0xC0 DUP4 ADD MSTORE PUSH1 0x8 DUP4 ADD SLOAD PUSH1 0xE0 DUP4 ADD MSTORE PUSH1 0x9 DUP4 ADD SLOAD PUSH2 0x100 SWAP1 SWAP3 ADD SWAP2 PUSH1 0xFF AND SWAP1 DUP2 GT ISZERO PUSH2 0x6E4 JUMPI PUSH2 0x6E4 PUSH2 0x240E JUMP JUMPDEST PUSH1 0x4 DUP2 GT ISZERO PUSH2 0x6F5 JUMPI PUSH2 0x6F5 PUSH2 0x240E JUMP JUMPDEST DUP2 MSTORE POP POP DUP3 DUP3 DUP2 MLOAD DUP2 LT PUSH2 0x70B JUMPI PUSH2 0x70B PUSH2 0x27C5 JUMP JUMPDEST PUSH1 0x20 MUL PUSH1 0x20 ADD ADD DUP2 SWAP1 MSTORE POP DUP1 DUP1 PUSH2 0x721 SWAP1 PUSH2 0x27DB JUMP JUMPDEST SWAP2 POP POP PUSH2 0x578 JUMP JUMPDEST POP SWAP2 SWAP1 POP JUMP JUMPDEST PUSH1 0x0 DUP2 DUP2 MSTORE PUSH1 0xFC PUSH1 0x20 MSTORE PUSH1 0x40 SWAP1 KECCAK256 PUSH1 0x3 ADD SLOAD DUP2 SWAP1 PUSH1 0x1 PUSH1 0x1 PUSH1 0xA0 SHL SUB AND CALLER EQ DUP1 PUSH2 0x772 JUMPI POP CALLER PUSH2 0x767 PUSH1 0x65 SLOAD PUSH1 0x1 PUSH1 0x1 PUSH1 0xA0 SHL SUB AND SWAP1 JUMP JUMPDEST PUSH1 0x1 PUSH1 0x1 PUSH1 0xA0 SHL SUB AND EQ JUMPDEST PUSH2 0x7D8 JUMPI PUSH1 0x40 MLOAD PUSH3 0x461BCD PUSH1 0xE5 SHL DUP2 MSTORE PUSH1 0x20 PUSH1 0x4 DUP3 ADD MSTORE PUSH1 0x2C PUSH1 0x24 DUP3 ADD MSTORE PUSH32 0x4F6E6C792073656C6C6572206F72204F776E65722063616E20706572666F726D PUSH1 0x44 DUP3 ADD MSTORE PUSH12 0x103A3434B99030B1BA34B7B7 PUSH1 0xA1 SHL PUSH1 0x64 DUP3 ADD MSTORE PUSH1 0x84 ADD JUMPDEST PUSH1 0x40 MLOAD DUP1 SWAP2 SUB SWAP1 REVERT JUMPDEST PUSH1 0x2 PUSH1 0x1 SLOAD SUB PUSH2 0x7FA JUMPI PUSH1 0x40 MLOAD PUSH3 0x461BCD PUSH1 0xE5 SHL DUP2 MSTORE PUSH1 0x4 ADD PUSH2 0x7CF SWAP1 PUSH2 0x27F4 JUMP JUMPDEST PUSH1 0x2 PUSH1 0x1 SSTORE PUSH1 0x0 DUP3 DUP2 MSTORE PUSH1 0xFC PUSH1 0x20 MSTORE PUSH1 0x40 DUP2 KECCAK256 PUSH1 0x9 ADD SLOAD PUSH1 0xFF AND PUSH1 0x4 DUP2 GT ISZERO PUSH2 0x825 JUMPI PUSH2 0x825 PUSH2 0x240E JUMP JUMPDEST EQ DUP1 PUSH2 0x856 JUMPI POP PUSH1 0x1 PUSH1 0x0 DUP4 DUP2 MSTORE PUSH1 0xFC PUSH1 0x20 MSTORE PUSH1 0x40 SWAP1 KECCAK256 PUSH1 0x9 ADD SLOAD PUSH1 0xFF AND PUSH1 0x4 DUP2 GT ISZERO PUSH2 0x854 JUMPI PUSH2 0x854 PUSH2 0x240E JUMP JUMPDEST EQ JUMPDEST PUSH2 0x8A2 JUMPI PUSH1 0x40 MLOAD PUSH3 0x461BCD PUSH1 0xE5 SHL DUP2 MSTORE PUSH1 0x20 PUSH1 0x4 DUP3 ADD MSTORE PUSH1 0x19 PUSH1 0x24 DUP3 ADD MSTORE PUSH32 0x43616E277420726566756E64207468697320657363726F772E00000000000000 PUSH1 0x44 DUP3 ADD MSTORE PUSH1 0x64 ADD PUSH2 0x7CF JUMP JUMPDEST PUSH1 0x0 DUP3 DUP2 MSTORE PUSH1 0xFC PUSH1 0x20 MSTORE PUSH1 0x40 SWAP1 KECCAK256 PUSH1 0x2 DUP2 ADD SLOAD PUSH1 0x5 DUP3 ADD SLOAD PUSH1 0x4 SWAP1 SWAP3 ADD SLOAD PUSH1 0x1 PUSH1 0x1 PUSH1 0xA0 SHL SUB SWAP1 SWAP2 AND SWAP2 PUSH2 0x8FC SWAP2 PUSH2 0x8DA SWAP2 SWAP1 PUSH2 0x277E JUMP JUMPDEST PUSH1 0x40 MLOAD DUP2 ISZERO SWAP1 SWAP3 MUL SWAP2 PUSH1 0x0 DUP2 DUP2 DUP2 DUP6 DUP9 DUP9 CALL SWAP4 POP POP POP POP ISZERO DUP1 ISZERO PUSH2 0x902 JUMPI RETURNDATASIZE PUSH1 0x0 DUP1 RETURNDATACOPY RETURNDATASIZE PUSH1 0x0 REVERT JUMPDEST POP PUSH1 0x0 DUP3 DUP2 MSTORE PUSH1 0xFC PUSH1 0x20 MSTORE PUSH1 0x40 SWAP1 KECCAK256 TIMESTAMP PUSH1 0x8 DUP3 ADD SSTORE PUSH1 0x9 ADD DUP1 SLOAD PUSH1 0xFF NOT AND PUSH1 0x4 SWAP1 DUP2 OR SWAP1 SWAP2 SSTORE JUMPDEST PUSH1 0x0 DUP4 DUP2 MSTORE PUSH1 0xFC PUSH1 0x20 MSTORE PUSH1 0x40 SWAP1 DUP2 SWAP1 KECCAK256 PUSH1 0x2 DUP2 ADD SLOAD PUSH1 0x3 DUP3 ADD SLOAD PUSH1 0x4 DUP4 ADD SLOAD PUSH1 0x5 DUP5 ADD SLOAD SWAP5 MLOAD DUP9 SWAP6 PUSH32 0xACFCB6D1FA91C83112102CE242B5502826BBC1A8114BC5030F4B4BD844DC3E67 SWAP6 PUSH2 0x994 SWAP6 PUSH1 0x1 SWAP1 SWAP2 ADD SWAP5 PUSH1 0x1 PUSH1 0x1 PUSH1 0xA0 SHL SUB SWAP2 DUP3 AND SWAP5 SWAP2 AND SWAP3 SWAP1 SWAP2 SWAP1 PUSH2 0x282B JUMP JUMPDEST PUSH1 0x40 MLOAD DUP1 SWAP2 SUB SWAP1 LOG3 POP POP PUSH1 0x1 DUP1 SSTORE JUMP JUMPDEST PUSH1 0x1 PUSH1 0x1 PUSH1 0xA0 SHL SUB PUSH32 0x0 AND ADDRESS SUB PUSH2 0x9EC JUMPI PUSH1 0x40 MLOAD PUSH3 0x461BCD PUSH1 0xE5 SHL DUP2 MSTORE PUSH1 0x4 ADD PUSH2 0x7CF SWAP1 PUSH2 0x28E2 JUMP JUMPDEST PUSH32 0x0 PUSH1 0x1 PUSH1 0x1 PUSH1 0xA0 SHL SUB AND PUSH2 0xA35 PUSH1 0x0 DUP1 MLOAD PUSH1 0x20 PUSH2 0x2BAA DUP4 CODECOPY DUP2 MLOAD SWAP2 MSTORE SLOAD PUSH1 0x1 PUSH1 0x1 PUSH1 0xA0 SHL SUB AND SWAP1 JUMP JUMPDEST PUSH1 0x1 PUSH1 0x1 PUSH1 0xA0 SHL SUB AND EQ PUSH2 0xA5B JUMPI PUSH1 0x40 MLOAD PUSH3 0x461BCD PUSH1 0xE5 SHL DUP2 MSTORE PUSH1 0x4 ADD PUSH2 0x7CF SWAP1 PUSH2 0x292E JUMP JUMPDEST PUSH2 0xA64 DUP2 PUSH2 0x1E06 JUMP JUMPDEST PUSH1 0x40 DUP1 MLOAD PUSH1 0x0 DUP1 DUP3 MSTORE PUSH1 0x20 DUP3 ADD SWAP1 SWAP3 MSTORE PUSH2 0xA80 SWAP2 DUP4 SWAP2 SWAP1 PUSH2 0x1E0E JUMP JUMPDEST POP JUMP JUMPDEST PUSH1 0x0 DUP2 DUP2 MSTORE PUSH1 0xFC PUSH1 0x20 MSTORE PUSH1 0x40 SWAP1 KECCAK256 PUSH1 0x2 ADD SLOAD DUP2 SWAP1 PUSH1 0x1 PUSH1 0x1 PUSH1 0xA0 SHL SUB AND CALLER EQ PUSH2 0xAE6 JUMPI PUSH1 0x40 MLOAD PUSH3 0x461BCD PUSH1 0xE5 SHL DUP2 MSTORE PUSH1 0x20 PUSH1 0x4 DUP3 ADD MSTORE PUSH1 0x15 PUSH1 0x24 DUP3 ADD MSTORE PUSH21 0x4F6E6C792042757965722043616E20416363657373 PUSH1 0x58 SHL PUSH1 0x44 DUP3 ADD MSTORE PUSH1 0x64 ADD PUSH2 0x7CF JUMP JUMPDEST PUSH1 0x2 PUSH1 0x1 SLOAD SUB PUSH2 0xB08 JUMPI PUSH1 0x40 MLOAD PUSH3 0x461BCD PUSH1 0xE5 SHL DUP2 MSTORE PUSH1 0x4 ADD PUSH2 0x7CF SWAP1 PUSH2 0x27F4 JUMP JUMPDEST PUSH1 0x2 PUSH1 0x1 SSTORE PUSH1 0x0 DUP3 DUP2 MSTORE PUSH1 0xFC PUSH1 0x20 MSTORE PUSH1 0x40 DUP2 KECCAK256 PUSH1 0x9 ADD SLOAD PUSH1 0xFF AND PUSH1 0x4 DUP2 GT ISZERO PUSH2 0xB33 JUMPI PUSH2 0xB33 PUSH2 0x240E JUMP JUMPDEST EQ PUSH2 0xB80 JUMPI PUSH1 0x40 MLOAD PUSH3 0x461BCD PUSH1 0xE5 SHL DUP2 MSTORE PUSH1 0x20 PUSH1 0x4 DUP3 ADD MSTORE PUSH1 0x1E PUSH1 0x24 DUP3 ADD MSTORE PUSH32 0x596F752063616E27742064656C69766572207468697320657363726F772E0000 PUSH1 0x44 DUP3 ADD MSTORE PUSH1 0x64 ADD PUSH2 0x7CF JUMP JUMPDEST PUSH1 0x0 DUP3 DUP2 MSTORE PUSH1 0xFC PUSH1 0x20 MSTORE PUSH1 0x40 DUP1 DUP3 KECCAK256 PUSH1 0x3 DUP2 ADD SLOAD PUSH1 0x4 SWAP1 SWAP2 ADD SLOAD SWAP2 MLOAD PUSH1 0x1 PUSH1 0x1 PUSH1 0xA0 SHL SUB SWAP1 SWAP2 AND SWAP3 DUP3 ISZERO PUSH2 0x8FC MUL SWAP3 SWAP2 SWAP1 DUP2 DUP2 DUP2 DUP6 DUP9 DUP9 CALL SWAP4 POP POP POP POP ISZERO DUP1 ISZERO PUSH2 0xBCE JUMPI RETURNDATASIZE PUSH1 0x0 DUP1 RETURNDATACOPY RETURNDATASIZE PUSH1 0x0 REVERT JUMPDEST POP PUSH1 0x65 SLOAD PUSH1 0x0 DUP4 DUP2 MSTORE PUSH1 0xFC PUSH1 0x20 MSTORE PUSH1 0x40 DUP1 DUP3 KECCAK256 PUSH1 0x5 ADD SLOAD SWAP1 MLOAD PUSH1 0x1 PUSH1 0x1 PUSH1 0xA0 SHL SUB SWAP1 SWAP4 AND SWAP3 PUSH2 0x8FC DUP3 ISZERO MUL SWAP3 DUP2 DUP2 DUP2 DUP6 DUP9 DUP9 CALL SWAP4 POP POP POP POP ISZERO DUP1 ISZERO PUSH2 0xC17 JUMPI RETURNDATASIZE PUSH1 0x0 DUP1 RETURNDATACOPY RETURNDATASIZE PUSH1 0x0 REVERT JUMPDEST POP PUSH1 0x0 DUP3 DUP2 MSTORE PUSH1 0xFC PUSH1 0x20 MSTORE PUSH1 0x40 SWAP1 KECCAK256 TIMESTAMP PUSH1 0x8 DUP3 ADD SSTORE PUSH1 0x9 ADD DUP1 SLOAD PUSH1 0xFF NOT AND PUSH1 0x2 SWAP1 DUP2 OR SWAP1 SWAP2 SSTORE PUSH2 0x929 JUMP JUMPDEST PUSH1 0x1 PUSH1 0x1 PUSH1 0xA0 SHL SUB PUSH32 0x0 AND ADDRESS SUB PUSH2 0xC8A JUMPI PUSH1 0x40 MLOAD PUSH3 0x461BCD PUSH1 0xE5 SHL DUP2 MSTORE PUSH1 0x4 ADD PUSH2 0x7CF SWAP1 PUSH2 0x28E2 JUMP JUMPDEST PUSH32 0x0 PUSH1 0x1 PUSH1 0x1 PUSH1 0xA0 SHL SUB AND PUSH2 0xCD3 PUSH1 0x0 DUP1 MLOAD PUSH1 0x20 PUSH2 0x2BAA DUP4 CODECOPY DUP2 MLOAD SWAP2 MSTORE SLOAD PUSH1 0x1 PUSH1 0x1 PUSH1 0xA0 SHL SUB AND SWAP1 JUMP JUMPDEST PUSH1 0x1 PUSH1 0x1 PUSH1 0xA0 SHL SUB AND EQ PUSH2 0xCF9 JUMPI PUSH1 0x40 MLOAD PUSH3 0x461BCD PUSH1 0xE5 SHL DUP2 MSTORE PUSH1 0x4 ADD PUSH2 0x7CF SWAP1 PUSH2 0x292E JUMP JUMPDEST PUSH2 0xD02 DUP3 PUSH2 0x1E06 JUMP JUMPDEST PUSH2 0xD0E DUP3 DUP3 PUSH1 0x1 PUSH2 0x1E0E JUMP JUMPDEST POP POP JUMP JUMPDEST PUSH1 0x0 ADDRESS PUSH1 0x1 PUSH1 0x1 PUSH1 0xA0 SHL SUB PUSH32 0x0 AND EQ PUSH2 0xDB2 JUMPI PUSH1 0x40 MLOAD PUSH3 0x461BCD PUSH1 0xE5 SHL DUP2 MSTORE PUSH1 0x20 PUSH1 0x4 DUP3 ADD MSTORE PUSH1 0x38 PUSH1 0x24 DUP3 ADD MSTORE PUSH32 0x555550535570677261646561626C653A206D757374206E6F742062652063616C PUSH1 0x44 DUP3 ADD MSTORE PUSH32 0x6C6564207468726F7567682064656C656761746563616C6C0000000000000000 PUSH1 0x64 DUP3 ADD MSTORE PUSH1 0x84 ADD PUSH2 0x7CF JUMP JUMPDEST POP PUSH1 0x0 DUP1 MLOAD PUSH1 0x20 PUSH2 0x2BAA DUP4 CODECOPY DUP2 MLOAD SWAP2 MSTORE SWAP1 JUMP JUMPDEST PUSH1 0x2 PUSH1 0x1 SLOAD SUB PUSH2 0xDE7 JUMPI PUSH1 0x40 MLOAD PUSH3 0x461BCD PUSH1 0xE5 SHL DUP2 MSTORE PUSH1 0x4 ADD PUSH2 0x7CF SWAP1 PUSH2 0x27F4 JUMP JUMPDEST PUSH1 0x2 PUSH1 0x1 SSTORE PUSH2 0xDFA PUSH1 0xFB DUP1 SLOAD PUSH1 0x1 ADD SWAP1 SSTORE JUMP JUMPDEST PUSH1 0x0 PUSH2 0xE05 PUSH1 0xFB SLOAD SWAP1 JUMP JUMPDEST SWAP1 POP PUSH7 0x2386F26FC10000 CALLVALUE LT ISZERO PUSH2 0xE70 JUMPI PUSH1 0x40 MLOAD PUSH3 0x461BCD PUSH1 0xE5 SHL DUP2 MSTORE PUSH1 0x20 PUSH1 0x4 DUP3 ADD MSTORE PUSH1 0x29 PUSH1 0x24 DUP3 ADD MSTORE PUSH32 0x457363726F77206D757374206265206C6172676572207468656E206D696E696D PUSH1 0x44 DUP3 ADD MSTORE PUSH9 0x1D5B48185B5BDD5B9D PUSH1 0xBA SHL PUSH1 0x64 DUP3 ADD MSTORE PUSH1 0x84 ADD PUSH2 0x7CF JUMP JUMPDEST PUSH1 0x0 PUSH1 0x64 PUSH2 0xE7F PUSH1 0x1 CALLVALUE PUSH2 0x297A JUMP JUMPDEST PUSH2 0xE89 SWAP2 SWAP1 PUSH2 0x2991 JUMP JUMPDEST SWAP1 POP PUSH1 0x0 PUSH2 0xE97 DUP3 CALLVALUE PUSH2 0x29B3 JUMP JUMPDEST SWAP1 POP PUSH1 0x40 MLOAD DUP1 PUSH2 0x140 ADD PUSH1 0x40 MSTORE DUP1 DUP5 DUP2 MSTORE PUSH1 0x20 ADD DUP7 DUP2 MSTORE PUSH1 0x20 ADD CALLER PUSH1 0x1 PUSH1 0x1 PUSH1 0xA0 SHL SUB AND DUP2 MSTORE PUSH1 0x20 ADD DUP8 PUSH1 0x1 PUSH1 0x1 PUSH1 0xA0 SHL SUB AND DUP2 MSTORE PUSH1 0x20 ADD DUP3 DUP2 MSTORE PUSH1 0x20 ADD DUP4 DUP2 MSTORE PUSH1 0x20 ADD TIMESTAMP DUP2 MSTORE PUSH1 0x20 ADD DUP6 DUP2 MSTORE PUSH1 0x20 ADD PUSH1 0x0 DUP2 MSTORE PUSH1 0x20 ADD PUSH1 0x0 PUSH1 0x4 DUP2 GT ISZERO PUSH2 0xF01 JUMPI PUSH2 0xF01 PUSH2 0x240E JUMP JUMPDEST SWAP1 MSTORE PUSH1 0x0 DUP5 DUP2 MSTORE PUSH1 0xFC PUSH1 0x20 SWAP1 DUP2 MSTORE PUSH1 0x40 SWAP1 SWAP2 KECCAK256 DUP3 MLOAD DUP2 SSTORE SWAP1 DUP3 ADD MLOAD PUSH1 0x1 DUP3 ADD SWAP1 PUSH2 0xF2B SWAP1 DUP3 PUSH2 0x2A14 JUMP JUMPDEST POP PUSH1 0x40 DUP3 ADD MLOAD PUSH1 0x2 DUP3 ADD DUP1 SLOAD PUSH1 0x1 PUSH1 0x1 PUSH1 0xA0 SHL SUB SWAP3 DUP4 AND PUSH1 0x1 PUSH1 0x1 PUSH1 0xA0 SHL SUB NOT SWAP2 DUP3 AND OR SWAP1 SWAP2 SSTORE PUSH1 0x60 DUP5 ADD MLOAD PUSH1 0x3 DUP5 ADD DUP1 SLOAD SWAP2 SWAP1 SWAP4 AND SWAP2 AND OR SWAP1 SSTORE PUSH1 0x80 DUP3 ADD MLOAD PUSH1 0x4 DUP1 DUP4 ADD SWAP2 SWAP1 SWAP2 SSTORE PUSH1 0xA0 DUP4 ADD MLOAD PUSH1 0x5 DUP4 ADD SSTORE PUSH1 0xC0 DUP4 ADD MLOAD PUSH1 0x6 DUP4 ADD SSTORE PUSH1 0xE0 DUP4 ADD MLOAD PUSH1 0x7 DUP4 ADD SSTORE PUSH2 0x100 DUP4 ADD MLOAD PUSH1 0x8 DUP4 ADD SSTORE PUSH2 0x120 DUP4 ADD MLOAD PUSH1 0x9 DUP4 ADD DUP1 SLOAD SWAP2 SWAP3 SWAP1 SWAP2 PUSH1 0xFF NOT AND SWAP1 PUSH1 0x1 SWAP1 DUP5 SWAP1 DUP2 GT ISZERO PUSH2 0xFC6 JUMPI PUSH2 0xFC6 PUSH2 0x240E JUMP JUMPDEST MUL OR SWAP1 SSTORE POP POP CALLER PUSH1 0x0 SWAP1 DUP2 MSTORE PUSH1 0xFD PUSH1 0x20 MSTORE PUSH1 0x40 SWAP1 KECCAK256 SLOAD PUSH2 0xFE8 SWAP2 POP PUSH1 0x1 PUSH2 0x277E JUMP JUMPDEST CALLER PUSH1 0x0 SWAP1 DUP2 MSTORE PUSH1 0xFD PUSH1 0x20 DUP2 DUP2 MSTORE PUSH1 0x40 DUP1 DUP5 KECCAK256 DUP6 SWAP1 SSTORE PUSH1 0xFE DUP3 MSTORE DUP1 DUP5 KECCAK256 SWAP5 DUP5 MSTORE SWAP4 DUP2 MSTORE DUP4 DUP4 KECCAK256 DUP8 SWAP1 SSTORE PUSH1 0x1 PUSH1 0x1 PUSH1 0xA0 SHL SUB DUP11 AND DUP4 MSTORE MSTORE KECCAK256 SLOAD PUSH2 0x102A SWAP1 PUSH1 0x1 PUSH2 0x277E JUMP JUMPDEST PUSH1 0x1 PUSH1 0x1 PUSH1 0xA0 SHL SUB DUP8 AND PUSH1 0x0 SWAP1 DUP2 MSTORE PUSH1 0xFD PUSH1 0x20 SWAP1 DUP2 MSTORE PUSH1 0x40 DUP1 DUP4 KECCAK256 DUP5 SWAP1 SSTORE PUSH1 0xFE DUP3 MSTORE DUP1 DUP4 KECCAK256 SWAP4 DUP4 MSTORE SWAP3 SWAP1 MSTORE DUP2 DUP2 KECCAK256 DUP6 SWAP1 SSTORE SWAP1 MLOAD DUP4 SWAP2 DUP4 SWAP2 DUP7 SWAP2 PUSH32 0xB9E71D1F685B313ACCB4809B03F62DC9601718815D3758ED626F3802E7F005B1 SWAP2 PUSH2 0x1094 SWAP2 DUP12 SWAP2 CALLER SWAP2 DUP15 SWAP2 PUSH2 0x2AD4 JUMP JUMPDEST PUSH1 0x40 MLOAD DUP1 SWAP2 SUB SWAP1 LOG4 POP POP PUSH1 0x1 DUP1 SSTORE POP POP POP POP JUMP JUMPDEST PUSH2 0x10B0 PUSH2 0x1F7E JUMP JUMPDEST PUSH2 0x10BA PUSH1 0x0 PUSH2 0x1FD8 JUMP JUMPDEST JUMP JUMPDEST PUSH1 0x0 SLOAD PUSH2 0x100 SWAP1 DIV PUSH1 0xFF AND ISZERO DUP1 DUP1 ISZERO PUSH2 0x10DC JUMPI POP PUSH1 0x0 SLOAD PUSH1 0x1 PUSH1 0xFF SWAP1 SWAP2 AND LT JUMPDEST DUP1 PUSH2 0x10F6 JUMPI POP ADDRESS EXTCODESIZE ISZERO DUP1 ISZERO PUSH2 0x10F6 JUMPI POP PUSH1 0x0 SLOAD PUSH1 0xFF AND PUSH1 0x1 EQ JUMPDEST PUSH2 0x1159 JUMPI PUSH1 0x40 MLOAD PUSH3 0x461BCD PUSH1 0xE5 SHL DUP2 MSTORE PUSH1 0x20 PUSH1 0x4 DUP3 ADD MSTORE PUSH1 0x2E PUSH1 0x24 DUP3 ADD MSTORE PUSH32 0x496E697469616C697A61626C653A20636F6E747261637420697320616C726561 PUSH1 0x44 DUP3 ADD MSTORE PUSH14 0x191E481A5B9A5D1A585B1A5E9959 PUSH1 0x92 SHL PUSH1 0x64 DUP3 ADD MSTORE PUSH1 0x84 ADD PUSH2 0x7CF JUMP JUMPDEST PUSH1 0x0 DUP1 SLOAD PUSH1 0xFF NOT AND PUSH1 0x1 OR SWAP1 SSTORE DUP1 ISZERO PUSH2 0x117C JUMPI PUSH1 0x0 DUP1 SLOAD PUSH2 0xFF00 NOT AND PUSH2 0x100 OR SWAP1 SSTORE JUMPDEST PUSH2 0x1184 PUSH2 0x202A JUMP JUMPDEST PUSH2 0x118C PUSH2 0x2059 JUMP JUMPDEST PUSH2 0x1194 PUSH2 0x2088 JUMP JUMPDEST DUP1 ISZERO PUSH2 0xA80 JUMPI PUSH1 0x0 DUP1 SLOAD PUSH2 0xFF00 NOT AND SWAP1 SSTORE PUSH1 0x40 MLOAD PUSH1 0x1 DUP2 MSTORE PUSH32 0x7F26B83FF96E1F2B6A682F133852F6798A09C465DA95921460CEFB3847402498 SWAP1 PUSH1 0x20 ADD PUSH1 0x40 MLOAD DUP1 SWAP2 SUB SWAP1 LOG1 POP JUMP JUMPDEST PUSH1 0x0 DUP2 DUP2 MSTORE PUSH1 0xFC PUSH1 0x20 MSTORE PUSH1 0x40 SWAP1 KECCAK256 PUSH1 0x3 ADD SLOAD DUP2 SWAP1 PUSH1 0x1 PUSH1 0x1 PUSH1 0xA0 SHL SUB AND CALLER EQ PUSH2 0x1240 JUMPI PUSH1 0x40 MLOAD PUSH3 0x461BCD PUSH1 0xE5 SHL DUP2 MSTORE PUSH1 0x20 PUSH1 0x4 DUP3 ADD MSTORE PUSH1 0x16 PUSH1 0x24 DUP3 ADD MSTORE PUSH22 0x4F6E6C792053656C6C65722043616E20416363657373 PUSH1 0x50 SHL PUSH1 0x44 DUP3 ADD MSTORE PUSH1 0x64 ADD PUSH2 0x7CF JUMP JUMPDEST PUSH1 0x2 PUSH1 0x1 SLOAD SUB PUSH2 0x1262 JUMPI PUSH1 0x40 MLOAD PUSH3 0x461BCD PUSH1 0xE5 SHL DUP2 MSTORE PUSH1 0x4 ADD PUSH2 0x7CF SWAP1 PUSH2 0x27F4 JUMP JUMPDEST PUSH1 0x2 PUSH1 0x1 SSTORE PUSH1 0x0 DUP3 DUP2 MSTORE PUSH1 0xFC PUSH1 0x20 MSTORE PUSH1 0x40 SWAP1 KECCAK256 PUSH1 0x7 ADD SLOAD TIMESTAMP LT ISZERO PUSH2 0x12C8 JUMPI PUSH1 0x40 MLOAD PUSH3 0x461BCD PUSH1 0xE5 SHL DUP2 MSTORE PUSH1 0x20 PUSH1 0x4 DUP3 ADD MSTORE PUSH1 0x18 PUSH1 0x24 DUP3 ADD MSTORE PUSH32 0x457363726F772069736E27742065787069726564207965740000000000000000 PUSH1 0x44 DUP3 ADD MSTORE PUSH1 0x64 ADD PUSH2 0x7CF JUMP JUMPDEST PUSH1 0x0 DUP3 DUP2 MSTORE PUSH1 0xFC PUSH1 0x20 MSTORE PUSH1 0x40 DUP2 KECCAK256 PUSH1 0x9 ADD SLOAD PUSH1 0xFF AND PUSH1 0x4 DUP2 GT ISZERO PUSH2 0x12EE JUMPI PUSH2 0x12EE PUSH2 0x240E JUMP JUMPDEST EQ PUSH2 0x133B JUMPI PUSH1 0x40 MLOAD PUSH3 0x461BCD PUSH1 0xE5 SHL DUP2 MSTORE PUSH1 0x20 PUSH1 0x4 DUP3 ADD MSTORE PUSH1 0x1C PUSH1 0x24 DUP3 ADD MSTORE PUSH32 0x596F752063616E277420636C61696D207468697320657363726F772E00000000 PUSH1 0x44 DUP3 ADD MSTORE PUSH1 0x64 ADD PUSH2 0x7CF JUMP JUMPDEST PUSH1 0x0 DUP3 DUP2 MSTORE PUSH1 0xFC PUSH1 0x20 MSTORE PUSH1 0x40 DUP1 DUP3 KECCAK256 PUSH1 0x3 DUP2 ADD SLOAD PUSH1 0x4 SWAP1 SWAP2 ADD SLOAD SWAP2 MLOAD PUSH1 0x1 PUSH1 0x1 PUSH1 0xA0 SHL SUB SWAP1 SWAP2 AND SWAP3 DUP3 ISZERO PUSH2 0x8FC MUL SWAP3 SWAP2 SWAP1 DUP2 DUP2 DUP2 DUP6 DUP9 DUP9 CALL SWAP4 POP POP POP POP ISZERO DUP1 ISZERO PUSH2 0x1389 JUMPI RETURNDATASIZE PUSH1 0x0 DUP1 RETURNDATACOPY RETURNDATASIZE PUSH1 0x0 REVERT JUMPDEST POP PUSH1 0x65 SLOAD PUSH1 0x0 DUP4 DUP2 MSTORE PUSH1 0xFC PUSH1 0x20 MSTORE PUSH1 0x40 DUP1 DUP3 KECCAK256 PUSH1 0x5 ADD SLOAD SWAP1 MLOAD PUSH1 0x1 PUSH1 0x1 PUSH1 0xA0 SHL SUB SWAP1 SWAP4 AND SWAP3 PUSH2 0x8FC DUP3 ISZERO MUL SWAP3 DUP2 DUP2 DUP2 DUP6 DUP9 DUP9 CALL SWAP4 POP POP POP POP ISZERO DUP1 ISZERO PUSH2 0x13D2 JUMPI RETURNDATASIZE PUSH1 0x0 DUP1 RETURNDATACOPY RETURNDATASIZE PUSH1 0x0 REVERT JUMPDEST POP PUSH1 0x0 DUP3 DUP2 MSTORE PUSH1 0xFC PUSH1 0x20 MSTORE PUSH1 0x40 SWAP1 KECCAK256 TIMESTAMP PUSH1 0x8 DUP3 ADD SSTORE PUSH1 0x9 ADD DUP1 SLOAD PUSH1 0xFF NOT AND PUSH1 0x3 SWAP1 DUP2 OR SWAP1 SWAP2 SSTORE PUSH2 0x929 JUMP JUMPDEST PUSH1 0x0 DUP2 DUP2 MSTORE PUSH1 0xFC PUSH1 0x20 MSTORE PUSH1 0x40 SWAP1 KECCAK256 PUSH1 0x2 ADD SLOAD DUP2 SWAP1 PUSH1 0x1 PUSH1 0x1 PUSH1 0xA0 SHL SUB AND CALLER EQ PUSH2 0x1460 JUMPI PUSH1 0x40 MLOAD PUSH3 0x461BCD PUSH1 0xE5 SHL DUP2 MSTORE PUSH1 0x20 PUSH1 0x4 DUP3 ADD MSTORE PUSH1 0x15 PUSH1 0x24 DUP3 ADD MSTORE PUSH21 0x4F6E6C792042757965722043616E20416363657373 PUSH1 0x58 SHL PUSH1 0x44 DUP3 ADD MSTORE PUSH1 0x64 ADD PUSH2 0x7CF JUMP JUMPDEST PUSH1 0x2 PUSH1 0x1 SLOAD SUB PUSH2 0x1482 JUMPI PUSH1 0x40 MLOAD PUSH3 0x461BCD PUSH1 0xE5 SHL DUP2 MSTORE PUSH1 0x4 ADD PUSH2 0x7CF SWAP1 PUSH2 0x27F4 JUMP JUMPDEST PUSH1 0x2 PUSH1 0x1 SSTORE PUSH1 0x0 DUP3 DUP2 MSTORE PUSH1 0xFC PUSH1 0x20 MSTORE PUSH1 0x40 DUP2 KECCAK256 PUSH1 0x9 ADD SLOAD PUSH1 0xFF AND PUSH1 0x4 DUP2 GT ISZERO PUSH2 0x14AD JUMPI PUSH2 0x14AD PUSH2 0x240E JUMP JUMPDEST EQ PUSH2 0x14FA JUMPI PUSH1 0x40 MLOAD PUSH3 0x461BCD PUSH1 0xE5 SHL DUP2 MSTORE PUSH1 0x20 PUSH1 0x4 DUP3 ADD MSTORE PUSH1 0x1E PUSH1 0x24 DUP3 ADD MSTORE PUSH32 0x596F752063616E27742064656C69766572207468697320657363726F772E0000 PUSH1 0x44 DUP3 ADD MSTORE PUSH1 0x64 ADD PUSH2 0x7CF JUMP JUMPDEST PUSH1 0x0 DUP3 DUP2 MSTORE PUSH1 0xFC PUSH1 0x20 MSTORE PUSH1 0x40 SWAP1 KECCAK256 TIMESTAMP PUSH1 0x8 DUP3 ADD SSTORE PUSH1 0x9 ADD DUP1 SLOAD PUSH1 0xFF NOT AND PUSH1 0x1 SWAP1 DUP2 OR SWAP1 SWAP2 SSTORE PUSH2 0x929 JUMP JUMPDEST PUSH2 0x152C PUSH2 0x2349 JUMP JUMPDEST PUSH1 0xFC PUSH1 0x0 DUP4 DUP2 MSTORE PUSH1 0x20 ADD SWAP1 DUP2 MSTORE PUSH1 0x20 ADD PUSH1 0x0 KECCAK256 PUSH1 0x40 MLOAD DUP1 PUSH2 0x140 ADD PUSH1 0x40 MSTORE SWAP1 DUP2 PUSH1 0x0 DUP3 ADD SLOAD DUP2 MSTORE PUSH1 0x20 ADD PUSH1 0x1 DUP3 ADD DUP1 SLOAD PUSH2 0x1565 SWAP1 PUSH2 0x2791 JUMP JUMPDEST DUP1 PUSH1 0x1F ADD PUSH1 0x20 DUP1 SWAP2 DIV MUL PUSH1 0x20 ADD PUSH1 0x40 MLOAD SWAP1 DUP2 ADD PUSH1 0x40 MSTORE DUP1 SWAP3 SWAP2 SWAP1 DUP2 DUP2 MSTORE PUSH1 0x20 ADD DUP3 DUP1 SLOAD PUSH2 0x1591 SWAP1 PUSH2 0x2791 JUMP JUMPDEST DUP1 ISZERO PUSH2 0x15DE JUMPI DUP1 PUSH1 0x1F LT PUSH2 0x15B3 JUMPI PUSH2 0x100 DUP1 DUP4 SLOAD DIV MUL DUP4 MSTORE SWAP2 PUSH1 0x20 ADD SWAP2 PUSH2 0x15DE JUMP JUMPDEST DUP3 ADD SWAP2 SWAP1 PUSH1 0x0 MSTORE PUSH1 0x20 PUSH1 0x0 KECCAK256 SWAP1 JUMPDEST DUP2 SLOAD DUP2 MSTORE SWAP1 PUSH1 0x1 ADD SWAP1 PUSH1 0x20 ADD DUP1 DUP4 GT PUSH2 0x15C1 JUMPI DUP3 SWAP1 SUB PUSH1 0x1F AND DUP3 ADD SWAP2 JUMPDEST POP POP POP SWAP2 DUP4 MSTORE POP POP PUSH1 0x2 DUP3 ADD SLOAD PUSH1 0x1 PUSH1 0x1 PUSH1 0xA0 SHL SUB SWAP1 DUP2 AND PUSH1 0x20 DUP4 ADD MSTORE PUSH1 0x3 DUP4 ADD SLOAD AND PUSH1 0x40 DUP3 ADD MSTORE PUSH1 0x4 DUP1 DUP4 ADD SLOAD PUSH1 0x60 DUP4 ADD MSTORE PUSH1 0x5 DUP4 ADD SLOAD PUSH1 0x80 DUP4 ADD MSTORE PUSH1 0x6 DUP4 ADD SLOAD PUSH1 0xA0 DUP4 ADD MSTORE PUSH1 0x7 DUP4 ADD SLOAD PUSH1 0xC0 DUP4 ADD MSTORE PUSH1 0x8 DUP4 ADD SLOAD PUSH1 0xE0 DUP4 ADD MSTORE PUSH1 0x9 DUP4 ADD SLOAD PUSH2 0x100 SWAP1 SWAP3 ADD SWAP2 PUSH1 0xFF AND SWAP1 DUP2 GT ISZERO PUSH2 0x1658 JUMPI PUSH2 0x1658 PUSH2 0x240E JUMP JUMPDEST PUSH1 0x4 DUP2 GT ISZERO PUSH2 0x1669 JUMPI PUSH2 0x1669 PUSH2 0x240E JUMP JUMPDEST SWAP1 MSTORE POP SWAP3 SWAP2 POP POP JUMP JUMPDEST PUSH2 0x167A PUSH2 0x1F7E JUMP JUMPDEST PUSH1 0x2 PUSH1 0x1 SLOAD SUB PUSH2 0x169C JUMPI PUSH1 0x40 MLOAD PUSH3 0x461BCD PUSH1 0xE5 SHL DUP2 MSTORE PUSH1 0x4 ADD PUSH2 0x7CF SWAP1 PUSH2 0x27F4 JUMP JUMPDEST PUSH1 0x2 PUSH1 0x1 SWAP1 DUP2 SSTORE PUSH1 0x0 DUP3 DUP2 MSTORE PUSH1 0xFC PUSH1 0x20 MSTORE PUSH1 0x40 SWAP1 KECCAK256 PUSH1 0x9 ADD SLOAD PUSH1 0xFF AND PUSH1 0x4 DUP2 GT ISZERO PUSH2 0x16C9 JUMPI PUSH2 0x16C9 PUSH2 0x240E JUMP JUMPDEST EQ PUSH2 0x1747 JUMPI PUSH1 0x40 MLOAD PUSH3 0x461BCD PUSH1 0xE5 SHL DUP2 MSTORE PUSH1 0x20 PUSH1 0x4 DUP3 ADD MSTORE PUSH1 0x42 PUSH1 0x24 DUP3 ADD MSTORE PUSH32 0x596F752063616E27742064656C69766572207468697320657363726F772E204F PUSH1 0x44 DUP3 ADD MSTORE PUSH32 0x6E6C79204F776E65722063616E20706572666F726D207468697320616374696F PUSH1 0x64 DUP3 ADD MSTORE PUSH2 0x3717 PUSH1 0xF1 SHL PUSH1 0x84 DUP3 ADD MSTORE PUSH1 0xA4 ADD PUSH2 0x7CF JUMP JUMPDEST PUSH1 0x0 DUP2 DUP2 MSTORE PUSH1 0xFC PUSH1 0x20 MSTORE PUSH1 0x40 DUP1 DUP3 KECCAK256 PUSH1 0x3 DUP2 ADD SLOAD PUSH1 0x4 SWAP1 SWAP2 ADD SLOAD SWAP2 MLOAD PUSH1 0x1 PUSH1 0x1 PUSH1 0xA0 SHL SUB SWAP1 SWAP2 AND SWAP3 DUP3 ISZERO PUSH2 0x8FC MUL SWAP3 SWAP2 SWAP1 DUP2 DUP2 DUP2 DUP6 DUP9 DUP9 CALL SWAP4 POP POP POP POP ISZERO DUP1 ISZERO PUSH2 0x1795 JUMPI RETURNDATASIZE PUSH1 0x0 DUP1 RETURNDATACOPY RETURNDATASIZE PUSH1 0x0 REVERT JUMPDEST POP PUSH1 0x65 SLOAD PUSH1 0x0 DUP3 DUP2 MSTORE PUSH1 0xFC PUSH1 0x20 MSTORE PUSH1 0x40 DUP1 DUP3 KECCAK256 PUSH1 0x5 ADD SLOAD SWAP1 MLOAD PUSH1 0x1 PUSH1 0x1 PUSH1 0xA0 SHL SUB SWAP1 SWAP4 AND SWAP3 PUSH2 0x8FC DUP3 ISZERO MUL SWAP3 DUP2 DUP2 DUP2 DUP6 DUP9 DUP9 CALL SWAP4 POP POP POP POP ISZERO DUP1 ISZERO PUSH2 0x17DE JUMPI RETURNDATASIZE PUSH1 0x0 DUP1 RETURNDATACOPY RETURNDATASIZE PUSH1 0x0 REVERT JUMPDEST POP PUSH1 0x0 DUP2 DUP2 MSTORE PUSH1 0xFC PUSH1 0x20 MSTORE PUSH1 0x40 SWAP1 DUP2 SWAP1 KECCAK256 TIMESTAMP PUSH1 0x8 DUP3 ADD SSTORE PUSH1 0x9 DUP2 ADD DUP1 SLOAD PUSH1 0xFF NOT AND PUSH1 0x2 SWAP1 DUP2 OR SWAP1 SWAP2 SSTORE DUP1 DUP3 ADD SLOAD PUSH1 0x3 DUP4 ADD SLOAD PUSH1 0x4 DUP5 ADD SLOAD PUSH1 0x5 DUP6 ADD SLOAD SWAP6 MLOAD SWAP4 SWAP6 DUP8 SWAP6 PUSH32 0xACFCB6D1FA91C83112102CE242B5502826BBC1A8114BC5030F4B4BD844DC3E67 SWAP6 PUSH2 0x1861 SWAP6 PUSH1 0x1 SWAP1 SWAP3 ADD SWAP5 PUSH1 0x1 PUSH1 0x1 PUSH1 0xA0 SHL SUB SWAP3 DUP4 AND SWAP5 SWAP3 AND SWAP3 SWAP1 PUSH2 0x282B JUMP JUMPDEST PUSH1 0x40 MLOAD DUP1 SWAP2 SUB SWAP1 LOG3 POP PUSH1 0x1 DUP1 SSTORE JUMP JUMPDEST PUSH1 0x60 PUSH1 0x0 DUP1 DUP1 DUP5 CALLER PUSH2 0x188A PUSH1 0x65 SLOAD PUSH1 0x1 PUSH1 0x1 PUSH1 0xA0 SHL SUB AND SWAP1 JUMP JUMPDEST PUSH1 0x1 PUSH1 0x1 PUSH1 0xA0 SHL SUB AND SUB PUSH2 0x1AE7 JUMPI PUSH1 0x0 PUSH2 0x18A3 PUSH1 0xFB SLOAD SWAP1 JUMP JUMPDEST SWAP1 POP PUSH1 0x1 PUSH2 0x18B1 DUP10 DUP4 PUSH2 0x29B3 JUMP JUMPDEST DUP4 GT ISZERO PUSH2 0x18CD JUMPI PUSH2 0x18C2 DUP10 DUP4 PUSH2 0x29B3 JUMP JUMPDEST SWAP3 POP PUSH1 0x0 SWAP1 POP PUSH2 0x18E1 JUMP JUMPDEST PUSH2 0x18D7 DUP10 DUP4 PUSH2 0x29B3 JUMP JUMPDEST DUP4 SUB PUSH2 0x18E1 JUMPI POP PUSH1 0x0 JUMPDEST PUSH1 0x0 DUP4 PUSH8 0xFFFFFFFFFFFFFFFF DUP2 GT ISZERO PUSH2 0x18FC JUMPI PUSH2 0x18FC PUSH2 0x25AB JUMP JUMPDEST PUSH1 0x40 MLOAD SWAP1 DUP1 DUP3 MSTORE DUP1 PUSH1 0x20 MUL PUSH1 0x20 ADD DUP3 ADD PUSH1 0x40 MSTORE DUP1 ISZERO PUSH2 0x1935 JUMPI DUP2 PUSH1 0x20 ADD JUMPDEST PUSH2 0x1922 PUSH2 0x2349 JUMP JUMPDEST DUP2 MSTORE PUSH1 0x20 ADD SWAP1 PUSH1 0x1 SWAP1 SUB SWAP1 DUP2 PUSH2 0x191A JUMPI SWAP1 POP JUMPDEST POP SWAP1 POP PUSH1 0x0 JUMPDEST DUP5 DUP2 LT ISZERO PUSH2 0x1AC8 JUMPI PUSH1 0xFC PUSH1 0x0 PUSH2 0x1951 DUP4 DUP15 PUSH2 0x277E JUMP JUMPDEST PUSH2 0x195C SWAP1 PUSH1 0x1 PUSH2 0x277E JUMP JUMPDEST DUP2 MSTORE PUSH1 0x20 ADD SWAP1 DUP2 MSTORE PUSH1 0x20 ADD PUSH1 0x0 KECCAK256 PUSH1 0x40 MLOAD DUP1 PUSH2 0x140 ADD PUSH1 0x40 MSTORE SWAP1 DUP2 PUSH1 0x0 DUP3 ADD SLOAD DUP2 MSTORE PUSH1 0x20 ADD PUSH1 0x1 DUP3 ADD DUP1 SLOAD PUSH2 0x1990 SWAP1 PUSH2 0x2791 JUMP JUMPDEST DUP1 PUSH1 0x1F ADD PUSH1 0x20 DUP1 SWAP2 DIV MUL PUSH1 0x20 ADD PUSH1 0x40 MLOAD SWAP1 DUP2 ADD PUSH1 0x40 MSTORE DUP1 SWAP3 SWAP2 SWAP1 DUP2 DUP2 MSTORE PUSH1 0x20 ADD DUP3 DUP1 SLOAD PUSH2 0x19BC SWAP1 PUSH2 0x2791 JUMP JUMPDEST DUP1 ISZERO PUSH2 0x1A09 JUMPI DUP1 PUSH1 0x1F LT PUSH2 0x19DE JUMPI PUSH2 0x100 DUP1 DUP4 SLOAD DIV MUL DUP4 MSTORE SWAP2 PUSH1 0x20 ADD SWAP2 PUSH2 0x1A09 JUMP JUMPDEST DUP3 ADD SWAP2 SWAP1 PUSH1 0x0 MSTORE PUSH1 0x20 PUSH1 0x0 KECCAK256 SWAP1 JUMPDEST DUP2 SLOAD DUP2 MSTORE SWAP1 PUSH1 0x1 ADD SWAP1 PUSH1 0x20 ADD DUP1 DUP4 GT PUSH2 0x19EC JUMPI DUP3 SWAP1 SUB PUSH1 0x1F AND DUP3 ADD SWAP2 JUMPDEST POP POP POP SWAP2 DUP4 MSTORE POP POP PUSH1 0x2 DUP3 ADD SLOAD PUSH1 0x1 PUSH1 0x1 PUSH1 0xA0 SHL SUB SWAP1 DUP2 AND PUSH1 0x20 DUP4 ADD MSTORE PUSH1 0x3 DUP4 ADD SLOAD AND PUSH1 0x40 DUP3 ADD MSTORE PUSH1 0x4 DUP1 DUP4 ADD SLOAD PUSH1 0x60 DUP4 ADD MSTORE PUSH1 0x5 DUP4 ADD SLOAD PUSH1 0x80 DUP4 ADD MSTORE PUSH1 0x6 DUP4 ADD SLOAD PUSH1 0xA0 DUP4 ADD MSTORE PUSH1 0x7 DUP4 ADD SLOAD PUSH1 0xC0 DUP4 ADD MSTORE PUSH1 0x8 DUP4 ADD SLOAD PUSH1 0xE0 DUP4 ADD MSTORE PUSH1 0x9 DUP4 ADD SLOAD PUSH2 0x100 SWAP1 SWAP3 ADD SWAP2 PUSH1 0xFF AND SWAP1 DUP2 GT ISZERO PUSH2 0x1A83 JUMPI PUSH2 0x1A83 PUSH2 0x240E JUMP JUMPDEST PUSH1 0x4 DUP2 GT ISZERO PUSH2 0x1A94 JUMPI PUSH2 0x1A94 PUSH2 0x240E JUMP JUMPDEST DUP2 MSTORE POP POP DUP3 DUP3 DUP2 MLOAD DUP2 LT PUSH2 0x1AAA JUMPI PUSH2 0x1AAA PUSH2 0x27C5 JUMP JUMPDEST PUSH1 0x20 MUL PUSH1 0x20 ADD ADD DUP2 SWAP1 MSTORE POP DUP1 DUP1 PUSH2 0x1AC0 SWAP1 PUSH2 0x27DB JUMP JUMPDEST SWAP2 POP POP PUSH2 0x193B JUMP JUMPDEST POP DUP1 DUP4 DUP4 PUSH2 0x1AD6 DUP8 DUP15 PUSH2 0x277E JUMP JUMPDEST SWAP8 POP SWAP8 POP SWAP8 POP SWAP8 POP POP POP POP POP PUSH2 0x1D87 JUMP JUMPDEST CALLER PUSH1 0x0 SWAP1 DUP2 MSTORE PUSH1 0xFD PUSH1 0x20 MSTORE PUSH1 0x40 SWAP1 KECCAK256 SLOAD PUSH1 0x1 SWAP1 PUSH2 0x1B05 SWAP1 DUP10 SWAP1 PUSH2 0x29B3 JUMP JUMPDEST DUP3 GT ISZERO PUSH2 0x1B32 JUMPI CALLER PUSH1 0x0 SWAP1 DUP2 MSTORE PUSH1 0xFD PUSH1 0x20 MSTORE PUSH1 0x40 SWAP1 KECCAK256 SLOAD PUSH2 0x1B27 SWAP1 DUP10 SWAP1 PUSH2 0x29B3 JUMP JUMPDEST SWAP2 POP PUSH1 0x0 SWAP1 POP PUSH2 0x1B57 JUMP JUMPDEST CALLER PUSH1 0x0 SWAP1 DUP2 MSTORE PUSH1 0xFD PUSH1 0x20 MSTORE PUSH1 0x40 SWAP1 KECCAK256 SLOAD PUSH2 0x1B4D SWAP1 DUP10 SWAP1 PUSH2 0x29B3 JUMP JUMPDEST DUP3 SUB PUSH2 0x1B57 JUMPI POP PUSH1 0x0 JUMPDEST PUSH1 0x0 DUP3 PUSH8 0xFFFFFFFFFFFFFFFF DUP2 GT ISZERO PUSH2 0x1B72 JUMPI PUSH2 0x1B72 PUSH2 0x25AB JUMP JUMPDEST PUSH1 0x40 MLOAD SWAP1 DUP1 DUP3 MSTORE DUP1 PUSH1 0x20 MUL PUSH1 0x20 ADD DUP3 ADD PUSH1 0x40 MSTORE DUP1 ISZERO PUSH2 0x1BAB JUMPI DUP2 PUSH1 0x20 ADD JUMPDEST PUSH2 0x1B98 PUSH2 0x2349 JUMP JUMPDEST DUP2 MSTORE PUSH1 0x20 ADD SWAP1 PUSH1 0x1 SWAP1 SUB SWAP1 DUP2 PUSH2 0x1B90 JUMPI SWAP1 POP JUMPDEST POP SWAP1 POP PUSH1 0x0 JUMPDEST DUP4 DUP2 LT ISZERO PUSH2 0x1D5D JUMPI CALLER PUSH1 0x0 SWAP1 DUP2 MSTORE PUSH1 0xFE PUSH1 0x20 MSTORE PUSH1 0x40 DUP2 KECCAK256 PUSH1 0xFC SWAP2 SWAP1 DUP2 PUSH2 0x1BD7 DUP6 DUP16 PUSH2 0x277E JUMP JUMPDEST PUSH2 0x1BE2 SWAP1 PUSH1 0x1 PUSH2 0x277E JUMP JUMPDEST DUP2 MSTORE PUSH1 0x20 ADD SWAP1 DUP2 MSTORE PUSH1 0x20 ADD PUSH1 0x0 KECCAK256 SLOAD DUP2 MSTORE PUSH1 0x20 ADD SWAP1 DUP2 MSTORE PUSH1 0x20 ADD PUSH1 0x0 KECCAK256 PUSH1 0x40 MLOAD DUP1 PUSH2 0x140 ADD PUSH1 0x40 MSTORE SWAP1 DUP2 PUSH1 0x0 DUP3 ADD SLOAD DUP2 MSTORE PUSH1 0x20 ADD PUSH1 0x1 DUP3 ADD DUP1 SLOAD PUSH2 0x1C25 SWAP1 PUSH2 0x2791 JUMP JUMPDEST DUP1 PUSH1 0x1F ADD PUSH1 0x20 DUP1 SWAP2 DIV MUL PUSH1 0x20 ADD PUSH1 0x40 MLOAD SWAP1 DUP2 ADD PUSH1 0x40 MSTORE DUP1 SWAP3 SWAP2 SWAP1 DUP2 DUP2 MSTORE PUSH1 0x20 ADD DUP3 DUP1 SLOAD PUSH2 0x1C51 SWAP1 PUSH2 0x2791 JUMP JUMPDEST DUP1 ISZERO PUSH2 0x1C9E JUMPI DUP1 PUSH1 0x1F LT PUSH2 0x1C73 JUMPI PUSH2 0x100 DUP1 DUP4 SLOAD DIV MUL DUP4 MSTORE SWAP2 PUSH1 0x20 ADD SWAP2 PUSH2 0x1C9E JUMP JUMPDEST DUP3 ADD SWAP2 SWAP1 PUSH1 0x0 MSTORE PUSH1 0x20 PUSH1 0x0 KECCAK256 SWAP1 JUMPDEST DUP2 SLOAD DUP2 MSTORE SWAP1 PUSH1 0x1 ADD SWAP1 PUSH1 0x20 ADD DUP1 DUP4 GT PUSH2 0x1C81 JUMPI DUP3 SWAP1 SUB PUSH1 0x1F AND DUP3 ADD SWAP2 JUMPDEST POP POP POP SWAP2 DUP4 MSTORE POP POP PUSH1 0x2 DUP3 ADD SLOAD PUSH1 0x1 PUSH1 0x1 PUSH1 0xA0 SHL SUB SWAP1 DUP2 AND PUSH1 0x20 DUP4 ADD MSTORE PUSH1 0x3 DUP4 ADD SLOAD AND PUSH1 0x40 DUP3 ADD MSTORE PUSH1 0x4 DUP1 DUP4 ADD SLOAD PUSH1 0x60 DUP4 ADD MSTORE PUSH1 0x5 DUP4 ADD SLOAD PUSH1 0x80 DUP4 ADD MSTORE PUSH1 0x6 DUP4 ADD SLOAD PUSH1 0xA0 DUP4 ADD MSTORE PUSH1 0x7 DUP4 ADD SLOAD PUSH1 0xC0 DUP4 ADD MSTORE PUSH1 0x8 DUP4 ADD SLOAD PUSH1 0xE0 DUP4 ADD MSTORE PUSH1 0x9 DUP4 ADD SLOAD PUSH2 0x100 SWAP1 SWAP3 ADD SWAP2 PUSH1 0xFF AND SWAP1 DUP2 GT ISZERO PUSH2 0x1D18 JUMPI PUSH2 0x1D18 PUSH2 0x240E JUMP JUMPDEST PUSH1 0x4 DUP2 GT ISZERO PUSH2 0x1D29 JUMPI PUSH2 0x1D29 PUSH2 0x240E JUMP JUMPDEST DUP2 MSTORE POP POP DUP3 DUP3 DUP2 MLOAD DUP2 LT PUSH2 0x1D3F JUMPI PUSH2 0x1D3F PUSH2 0x27C5 JUMP JUMPDEST PUSH1 0x20 MUL PUSH1 0x20 ADD ADD DUP2 SWAP1 MSTORE POP DUP1 DUP1 PUSH2 0x1D55 SWAP1 PUSH2 0x27DB JUMP JUMPDEST SWAP2 POP POP PUSH2 0x1BB1 JUMP JUMPDEST POP CALLER PUSH1 0x0 SWAP1 DUP2 MSTORE PUSH1 0xFD PUSH1 0x20 MSTORE PUSH1 0x40 SWAP1 KECCAK256 SLOAD DUP2 SWAP1 DUP4 PUSH2 0x1D7B DUP7 DUP14 PUSH2 0x277E JUMP JUMPDEST SWAP7 POP SWAP7 POP SWAP7 POP SWAP7 POP POP POP POP JUMPDEST SWAP3 SWAP6 SWAP2 SWAP5 POP SWAP3 POP JUMP JUMPDEST PUSH2 0x1D98 PUSH2 0x1F7E JUMP JUMPDEST PUSH1 0x1 PUSH1 0x1 PUSH1 0xA0 SHL SUB DUP2 AND PUSH2 0x1DFD JUMPI PUSH1 0x40 MLOAD PUSH3 0x461BCD PUSH1 0xE5 SHL DUP2 MSTORE PUSH1 0x20 PUSH1 0x4 DUP3 ADD MSTORE PUSH1 0x26 PUSH1 0x24 DUP3 ADD MSTORE PUSH32 0x4F776E61626C653A206E6577206F776E657220697320746865207A65726F2061 PUSH1 0x44 DUP3 ADD MSTORE PUSH6 0x646472657373 PUSH1 0xD0 SHL PUSH1 0x64 DUP3 ADD MSTORE PUSH1 0x84 ADD PUSH2 0x7CF JUMP JUMPDEST PUSH2 0xA80 DUP2 PUSH2 0x1FD8 JUMP JUMPDEST PUSH2 0xA80 PUSH2 0x1F7E JUMP JUMPDEST PUSH32 0x4910FDFA16FED3260ED0E7147F7CC6DA11A60208B5B9406D12A635614FFD9143 SLOAD PUSH1 0xFF AND ISZERO PUSH2 0x1E46 JUMPI PUSH2 0x1E41 DUP4 PUSH2 0x20AF JUMP JUMPDEST POP POP POP JUMP JUMPDEST DUP3 PUSH1 0x1 PUSH1 0x1 PUSH1 0xA0 SHL SUB AND PUSH4 0x52D1902D PUSH1 0x40 MLOAD DUP2 PUSH4 0xFFFFFFFF AND PUSH1 0xE0 SHL DUP2 MSTORE PUSH1 0x4 ADD PUSH1 0x20 PUSH1 0x40 MLOAD DUP1 DUP4 SUB DUP2 DUP7 GAS STATICCALL SWAP3 POP POP POP DUP1 ISZERO PUSH2 0x1EA0 JUMPI POP PUSH1 0x40 DUP1 MLOAD PUSH1 0x1F RETURNDATASIZE SWAP1 DUP2 ADD PUSH1 0x1F NOT AND DUP3 ADD SWAP1 SWAP3 MSTORE PUSH2 0x1E9D SWAP2 DUP2 ADD SWAP1 PUSH2 0x2B16 JUMP JUMPDEST PUSH1 0x1 JUMPDEST PUSH2 0x1F03 JUMPI PUSH1 0x40 MLOAD PUSH3 0x461BCD PUSH1 0xE5 SHL DUP2 MSTORE PUSH1 0x20 PUSH1 0x4 DUP3 ADD MSTORE PUSH1 0x2E PUSH1 0x24 DUP3 ADD MSTORE PUSH32 0x45524331393637557067726164653A206E657720696D706C656D656E74617469 PUSH1 0x44 DUP3 ADD MSTORE PUSH14 0x6F6E206973206E6F742055555053 PUSH1 0x90 SHL PUSH1 0x64 DUP3 ADD MSTORE PUSH1 0x84 ADD PUSH2 0x7CF JUMP JUMPDEST PUSH1 0x0 DUP1 MLOAD PUSH1 0x20 PUSH2 0x2BAA DUP4 CODECOPY DUP2 MLOAD SWAP2 MSTORE DUP2 EQ PUSH2 0x1F72 JUMPI PUSH1 0x40 MLOAD PUSH3 0x461BCD PUSH1 0xE5 SHL DUP2 MSTORE PUSH1 0x20 PUSH1 0x4 DUP3 ADD MSTORE PUSH1 0x29 PUSH1 0x24 DUP3 ADD MSTORE PUSH32 0x45524331393637557067726164653A20756E737570706F727465642070726F78 PUSH1 0x44 DUP3 ADD MSTORE PUSH9 0x1A58589B1955555251 PUSH1 0xBA SHL PUSH1 0x64 DUP3 ADD MSTORE PUSH1 0x84 ADD PUSH2 0x7CF JUMP JUMPDEST POP PUSH2 0x1E41 DUP4 DUP4 DUP4 PUSH2 0x214B JUMP JUMPDEST PUSH1 0x65 SLOAD PUSH1 0x1 PUSH1 0x1 PUSH1 0xA0 SHL SUB AND CALLER EQ PUSH2 0x10BA JUMPI PUSH1 0x40 MLOAD PUSH3 0x461BCD PUSH1 0xE5 SHL DUP2 MSTORE PUSH1 0x20 PUSH1 0x4 DUP3 ADD DUP2 SWAP1 MSTORE PUSH1 0x24 DUP3 ADD MSTORE PUSH32 0x4F776E61626C653A2063616C6C6572206973206E6F7420746865206F776E6572 PUSH1 0x44 DUP3 ADD MSTORE PUSH1 0x64 ADD PUSH2 0x7CF JUMP JUMPDEST PUSH1 0x65 DUP1 SLOAD PUSH1 0x1 PUSH1 0x1 PUSH1 0xA0 SHL SUB DUP4 DUP2 AND PUSH1 0x1 PUSH1 0x1 PUSH1 0xA0 SHL SUB NOT DUP4 AND DUP2 OR SWAP1 SWAP4 SSTORE PUSH1 0x40 MLOAD SWAP2 AND SWAP2 SWAP1 DUP3 SWAP1 PUSH32 0x8BE0079C531659141344CD1FD0A4F28419497F9722A3DAAFE3B4186F6B6457E0 SWAP1 PUSH1 0x0 SWAP1 LOG3 POP POP JUMP JUMPDEST PUSH1 0x0 SLOAD PUSH2 0x100 SWAP1 DIV PUSH1 0xFF AND PUSH2 0x2051 JUMPI PUSH1 0x40 MLOAD PUSH3 0x461BCD PUSH1 0xE5 SHL DUP2 MSTORE PUSH1 0x4 ADD PUSH2 0x7CF SWAP1 PUSH2 0x2B2F JUMP JUMPDEST PUSH2 0x10BA PUSH2 0x2176 JUMP JUMPDEST PUSH1 0x0 SLOAD PUSH2 0x100 SWAP1 DIV PUSH1 0xFF AND PUSH2 0x2080 JUMPI PUSH1 0x40 MLOAD PUSH3 0x461BCD PUSH1 0xE5 SHL DUP2 MSTORE PUSH1 0x4 ADD PUSH2 0x7CF SWAP1 PUSH2 0x2B2F JUMP JUMPDEST PUSH2 0x10BA PUSH2 0x21A3 JUMP JUMPDEST PUSH1 0x0 SLOAD PUSH2 0x100 SWAP1 DIV PUSH1 0xFF AND PUSH2 0x10BA JUMPI PUSH1 0x40 MLOAD PUSH3 0x461BCD PUSH1 0xE5 SHL DUP2 MSTORE PUSH1 0x4 ADD PUSH2 0x7CF SWAP1 PUSH2 0x2B2F JUMP JUMPDEST PUSH1 0x1 PUSH1 0x1 PUSH1 0xA0 SHL SUB DUP2 AND EXTCODESIZE PUSH2 0x211C JUMPI PUSH1 0x40 MLOAD PUSH3 0x461BCD PUSH1 0xE5 SHL DUP2 MSTORE PUSH1 0x20 PUSH1 0x4 DUP3 ADD MSTORE PUSH1 0x2D PUSH1 0x24 DUP3 ADD MSTORE PUSH32 0x455243313936373A206E657720696D706C656D656E746174696F6E206973206E PUSH1 0x44 DUP3 ADD MSTORE PUSH13 0x1BDD08184818DBDB9D1C9858DD PUSH1 0x9A SHL PUSH1 0x64 DUP3 ADD MSTORE PUSH1 0x84 ADD PUSH2 0x7CF JUMP JUMPDEST PUSH1 0x0 DUP1 MLOAD PUSH1 0x20 PUSH2 0x2BAA DUP4 CODECOPY DUP2 MLOAD SWAP2 MSTORE DUP1 SLOAD PUSH1 0x1 PUSH1 0x1 PUSH1 0xA0 SHL SUB NOT AND PUSH1 0x1 PUSH1 0x1 PUSH1 0xA0 SHL SUB SWAP3 SWAP1 SWAP3 AND SWAP2 SWAP1 SWAP2 OR SWAP1 SSTORE JUMP JUMPDEST PUSH2 0x2154 DUP4 PUSH2 0x21D3 JUMP JUMPDEST PUSH1 0x0 DUP3 MLOAD GT DUP1 PUSH2 0x2161 JUMPI POP DUP1 JUMPDEST ISZERO PUSH2 0x1E41 JUMPI PUSH2 0x2170 DUP4 DUP4 PUSH2 0x2213 JUMP JUMPDEST POP POP POP POP JUMP JUMPDEST PUSH1 0x0 SLOAD PUSH2 0x100 SWAP1 DIV PUSH1 0xFF AND PUSH2 0x219D JUMPI PUSH1 0x40 MLOAD PUSH3 0x461BCD PUSH1 0xE5 SHL DUP2 MSTORE PUSH1 0x4 ADD PUSH2 0x7CF SWAP1 PUSH2 0x2B2F JUMP JUMPDEST PUSH1 0x1 DUP1 SSTORE JUMP JUMPDEST PUSH1 0x0 SLOAD PUSH2 0x100 SWAP1 DIV PUSH1 0xFF AND PUSH2 0x21CA JUMPI PUSH1 0x40 MLOAD PUSH3 0x461BCD PUSH1 0xE5 SHL DUP2 MSTORE PUSH1 0x4 ADD PUSH2 0x7CF SWAP1 PUSH2 0x2B2F JUMP JUMPDEST PUSH2 0x10BA CALLER PUSH2 0x1FD8 JUMP JUMPDEST PUSH2 0x21DC DUP2 PUSH2 0x20AF JUMP JUMPDEST PUSH1 0x40 MLOAD PUSH1 0x1 PUSH1 0x1 PUSH1 0xA0 SHL SUB DUP3 AND SWAP1 PUSH32 0xBC7CD75A20EE27FD9ADEBAB32041F755214DBC6BFFA90CC0225B39DA2E5C2D3B SWAP1 PUSH1 0x0 SWAP1 LOG2 POP JUMP JUMPDEST PUSH1 0x60 PUSH1 0x1 PUSH1 0x1 PUSH1 0xA0 SHL SUB DUP4 AND EXTCODESIZE PUSH2 0x227B JUMPI PUSH1 0x40 MLOAD PUSH3 0x461BCD PUSH1 0xE5 SHL DUP2 MSTORE PUSH1 0x20 PUSH1 0x4 DUP3 ADD MSTORE PUSH1 0x26 PUSH1 0x24 DUP3 ADD MSTORE PUSH32 0x416464726573733A2064656C65676174652063616C6C20746F206E6F6E2D636F PUSH1 0x44 DUP3 ADD MSTORE PUSH6 0x1B9D1C9858DD PUSH1 0xD2 SHL PUSH1 0x64 DUP3 ADD MSTORE PUSH1 0x84 ADD PUSH2 0x7CF JUMP JUMPDEST PUSH1 0x0 DUP1 DUP5 PUSH1 0x1 PUSH1 0x1 PUSH1 0xA0 SHL SUB AND DUP5 PUSH1 0x40 MLOAD PUSH2 0x2296 SWAP2 SWAP1 PUSH2 0x2B7A JUMP JUMPDEST PUSH1 0x0 PUSH1 0x40 MLOAD DUP1 DUP4 SUB DUP2 DUP6 GAS DELEGATECALL SWAP2 POP POP RETURNDATASIZE DUP1 PUSH1 0x0 DUP2 EQ PUSH2 0x22D1 JUMPI PUSH1 0x40 MLOAD SWAP2 POP PUSH1 0x1F NOT PUSH1 0x3F RETURNDATASIZE ADD AND DUP3 ADD PUSH1 0x40 MSTORE RETURNDATASIZE DUP3 MSTORE RETURNDATASIZE PUSH1 0x0 PUSH1 0x20 DUP5 ADD RETURNDATACOPY PUSH2 0x22D6 JUMP JUMPDEST PUSH1 0x60 SWAP2 POP JUMPDEST POP SWAP2 POP SWAP2 POP PUSH2 0x22FE DUP3 DUP3 PUSH1 0x40 MLOAD DUP1 PUSH1 0x60 ADD PUSH1 0x40 MSTORE DUP1 PUSH1 0x27 DUP2 MSTORE PUSH1 0x20 ADD PUSH2 0x2BCA PUSH1 0x27 SWAP2 CODECOPY PUSH2 0x2309 JUMP JUMPDEST SWAP3 POP POP POP JUMPDEST SWAP3 SWAP2 POP POP JUMP JUMPDEST PUSH1 0x60 DUP4 ISZERO PUSH2 0x2318 JUMPI POP DUP2 PUSH2 0x2342 JUMP JUMPDEST DUP3 MLOAD ISZERO PUSH2 0x2328 JUMPI DUP3 MLOAD DUP1 DUP5 PUSH1 0x20 ADD REVERT JUMPDEST DUP2 PUSH1 0x40 MLOAD PUSH3 0x461BCD PUSH1 0xE5 SHL DUP2 MSTORE PUSH1 0x4 ADD PUSH2 0x7CF SWAP2 SWAP1 PUSH2 0x2B96 JUMP JUMPDEST SWAP4 SWAP3 POP POP POP JUMP JUMPDEST PUSH1 0x40 MLOAD DUP1 PUSH2 0x140 ADD PUSH1 0x40 MSTORE DUP1 PUSH1 0x0 DUP2 MSTORE PUSH1 0x20 ADD PUSH1 0x60 DUP2 MSTORE PUSH1 0x20 ADD PUSH1 0x0 PUSH1 0x1 PUSH1 0x1 PUSH1 0xA0 SHL SUB AND DUP2 MSTORE PUSH1 0x20 ADD PUSH1 0x0 PUSH1 0x1 PUSH1 0x1 PUSH1 0xA0 SHL SUB AND DUP2 MSTORE PUSH1 0x20 ADD PUSH1 0x0 DUP2 MSTORE PUSH1 0x20 ADD PUSH1 0x0 DUP2 MSTORE PUSH1 0x20 ADD PUSH1 0x0 DUP2 MSTORE PUSH1 0x20 ADD PUSH1 0x0 DUP2 MSTORE PUSH1 0x20 ADD PUSH1 0x0 DUP2 MSTORE PUSH1 0x20 ADD PUSH1 0x0 PUSH1 0x4 DUP2 GT ISZERO PUSH2 0x23B9 JUMPI PUSH2 0x23B9 PUSH2 0x240E JUMP JUMPDEST SWAP1 MSTORE SWAP1 JUMP JUMPDEST PUSH1 0x0 JUMPDEST DUP4 DUP2 LT ISZERO PUSH2 0x23D9 JUMPI DUP2 DUP2 ADD MLOAD DUP4 DUP3 ADD MSTORE PUSH1 0x20 ADD PUSH2 0x23C1 JUMP JUMPDEST POP POP PUSH1 0x0 SWAP2 ADD MSTORE JUMP JUMPDEST PUSH1 0x0 DUP2 MLOAD DUP1 DUP5 MSTORE PUSH2 0x23FA DUP2 PUSH1 0x20 DUP7 ADD PUSH1 0x20 DUP7 ADD PUSH2 0x23BE JUMP JUMPDEST PUSH1 0x1F ADD PUSH1 0x1F NOT AND SWAP3 SWAP1 SWAP3 ADD PUSH1 0x20 ADD SWAP3 SWAP2 POP POP JUMP JUMPDEST PUSH4 0x4E487B71 PUSH1 0xE0 SHL PUSH1 0x0 MSTORE PUSH1 0x21 PUSH1 0x4 MSTORE PUSH1 0x24 PUSH1 0x0 REVERT JUMPDEST PUSH1 0x5 DUP2 LT PUSH2 0x2442 JUMPI PUSH4 0x4E487B71 PUSH1 0xE0 SHL PUSH1 0x0 MSTORE PUSH1 0x21 PUSH1 0x4 MSTORE PUSH1 0x24 PUSH1 0x0 REVERT JUMPDEST SWAP1 MSTORE JUMP JUMPDEST PUSH1 0x0 PUSH2 0x140 DUP3 MLOAD DUP5 MSTORE PUSH1 0x20 DUP4 ADD MLOAD DUP2 PUSH1 0x20 DUP7 ADD MSTORE PUSH2 0x2466 DUP3 DUP7 ADD DUP3 PUSH2 0x23E2 JUMP JUMPDEST SWAP2 POP POP PUSH1 0x40 DUP4 ADD MLOAD PUSH2 0x2483 PUSH1 0x40 DUP7 ADD DUP3 PUSH1 0x1 PUSH1 0x1 PUSH1 0xA0 SHL SUB AND SWAP1 MSTORE JUMP JUMPDEST POP PUSH1 0x60 DUP4 ADD MLOAD PUSH2 0x249E PUSH1 0x60 DUP7 ADD DUP3 PUSH1 0x1 PUSH1 0x1 PUSH1 0xA0 SHL SUB AND SWAP1 MSTORE JUMP JUMPDEST POP PUSH1 0x80 DUP4 ADD MLOAD PUSH1 0x80 DUP6 ADD MSTORE PUSH1 0xA0 DUP4 ADD MLOAD PUSH1 0xA0 DUP6 ADD MSTORE PUSH1 0xC0 DUP4 ADD MLOAD PUSH1 0xC0 DUP6 ADD MSTORE PUSH1 0xE0 DUP4 ADD MLOAD PUSH1 0xE0 DUP6 ADD MSTORE PUSH2 0x100 DUP1 DUP5 ADD MLOAD DUP2 DUP7 ADD MSTORE POP PUSH2 0x120 DUP1 DUP5 ADD MLOAD PUSH2 0x24E6 DUP3 DUP8 ADD DUP3 PUSH2 0x2424 JUMP JUMPDEST POP SWAP1 SWAP5 SWAP4 POP POP POP POP JUMP JUMPDEST PUSH1 0x0 DUP3 DUP3 MLOAD DUP1 DUP6 MSTORE PUSH1 0x20 DUP1 DUP7 ADD SWAP6 POP DUP1 DUP3 PUSH1 0x5 SHL DUP5 ADD ADD DUP2 DUP7 ADD PUSH1 0x0 JUMPDEST DUP5 DUP2 LT ISZERO PUSH2 0x253B JUMPI PUSH1 0x1F NOT DUP7 DUP5 SUB ADD DUP10 MSTORE PUSH2 0x2529 DUP4 DUP4 MLOAD PUSH2 0x2446 JUMP JUMPDEST SWAP9 DUP5 ADD SWAP9 SWAP3 POP SWAP1 DUP4 ADD SWAP1 PUSH1 0x1 ADD PUSH2 0x250D JUMP JUMPDEST POP SWAP1 SWAP8 SWAP7 POP POP POP POP POP POP POP JUMP JUMPDEST PUSH1 0x20 DUP2 MSTORE PUSH1 0x0 PUSH2 0x2342 PUSH1 0x20 DUP4 ADD DUP5 PUSH2 0x24F0 JUMP JUMPDEST PUSH1 0x0 PUSH1 0x20 DUP3 DUP5 SUB SLT ISZERO PUSH2 0x256D JUMPI PUSH1 0x0 DUP1 REVERT JUMPDEST POP CALLDATALOAD SWAP2 SWAP1 POP JUMP JUMPDEST DUP1 CALLDATALOAD PUSH1 0x1 PUSH1 0x1 PUSH1 0xA0 SHL SUB DUP2 AND DUP2 EQ PUSH2 0x258B JUMPI PUSH1 0x0 DUP1 REVERT JUMPDEST SWAP2 SWAP1 POP JUMP JUMPDEST PUSH1 0x0 PUSH1 0x20 DUP3 DUP5 SUB SLT ISZERO PUSH2 0x25A2 JUMPI PUSH1 0x0 DUP1 REVERT JUMPDEST PUSH2 0x2342 DUP3 PUSH2 0x2574 JUMP JUMPDEST PUSH4 0x4E487B71 PUSH1 0xE0 SHL PUSH1 0x0 MSTORE PUSH1 0x41 PUSH1 0x4 MSTORE PUSH1 0x24 PUSH1 0x0 REVERT JUMPDEST PUSH1 0x0 PUSH8 0xFFFFFFFFFFFFFFFF DUP1 DUP5 GT ISZERO PUSH2 0x25DC JUMPI PUSH2 0x25DC PUSH2 0x25AB JUMP JUMPDEST PUSH1 0x40 MLOAD PUSH1 0x1F DUP6 ADD PUSH1 0x1F NOT SWAP1 DUP2 AND PUSH1 0x3F ADD AND DUP2 ADD SWAP1 DUP3 DUP3 GT DUP2 DUP4 LT OR ISZERO PUSH2 0x2604 JUMPI PUSH2 0x2604 PUSH2 0x25AB JUMP JUMPDEST DUP2 PUSH1 0x40 MSTORE DUP1 SWAP4 POP DUP6 DUP2 MSTORE DUP7 DUP7 DUP7 ADD GT ISZERO PUSH2 0x261D JUMPI PUSH1 0x0 DUP1 REVERT JUMPDEST DUP6 DUP6 PUSH1 0x20 DUP4 ADD CALLDATACOPY PUSH1 0x0 PUSH1 0x20 DUP8 DUP4 ADD ADD MSTORE POP POP POP SWAP4 SWAP3 POP POP POP JUMP JUMPDEST PUSH1 0x0 DUP1 PUSH1 0x40 DUP4 DUP6 SUB SLT ISZERO PUSH2 0x264A JUMPI PUSH1 0x0 DUP1 REVERT JUMPDEST PUSH2 0x2653 DUP4 PUSH2 0x2574 JUMP JUMPDEST SWAP2 POP PUSH1 0x20 DUP4 ADD CALLDATALOAD PUSH8 0xFFFFFFFFFFFFFFFF DUP2 GT ISZERO PUSH2 0x266F JUMPI PUSH1 0x0 DUP1 REVERT JUMPDEST DUP4 ADD PUSH1 0x1F DUP2 ADD DUP6 SGT PUSH2 0x2680 JUMPI PUSH1 0x0 DUP1 REVERT JUMPDEST PUSH2 0x268F DUP6 DUP3 CALLDATALOAD PUSH1 0x20 DUP5 ADD PUSH2 0x25C1 JUMP JUMPDEST SWAP2 POP POP SWAP3 POP SWAP3 SWAP1 POP JUMP JUMPDEST PUSH1 0x0 DUP1 PUSH1 0x0 PUSH1 0x60 DUP5 DUP7 SUB SLT ISZERO PUSH2 0x26AE JUMPI PUSH1 0x0 DUP1 REVERT JUMPDEST PUSH2 0x26B7 DUP5 PUSH2 0x2574 JUMP JUMPDEST SWAP3 POP PUSH1 0x20 DUP5 ADD CALLDATALOAD PUSH8 0xFFFFFFFFFFFFFFFF DUP2 GT ISZERO PUSH2 0x26D3 JUMPI PUSH1 0x0 DUP1 REVERT JUMPDEST DUP5 ADD PUSH1 0x1F DUP2 ADD DUP7 SGT PUSH2 0x26E4 JUMPI PUSH1 0x0 DUP1 REVERT JUMPDEST PUSH2 0x26F3 DUP7 DUP3 CALLDATALOAD PUSH1 0x20 DUP5 ADD PUSH2 0x25C1 JUMP JUMPDEST SWAP3 POP POP PUSH1 0x40 DUP5 ADD CALLDATALOAD SWAP1 POP SWAP3 POP SWAP3 POP SWAP3 JUMP JUMPDEST PUSH1 0x20 DUP2 MSTORE PUSH1 0x0 PUSH2 0x2342 PUSH1 0x20 DUP4 ADD DUP5 PUSH2 0x2446 JUMP JUMPDEST PUSH1 0x0 DUP1 PUSH1 0x40 DUP4 DUP6 SUB SLT ISZERO PUSH2 0x272A JUMPI PUSH1 0x0 DUP1 REVERT JUMPDEST POP POP DUP1 CALLDATALOAD SWAP3 PUSH1 0x20 SWAP1 SWAP2 ADD CALLDATALOAD SWAP2 POP JUMP JUMPDEST PUSH1 0x80 DUP2 MSTORE PUSH1 0x0 PUSH2 0x274C PUSH1 0x80 DUP4 ADD DUP8 PUSH2 0x24F0 JUMP JUMPDEST PUSH1 0x20 DUP4 ADD SWAP6 SWAP1 SWAP6 MSTORE POP SWAP2 ISZERO ISZERO PUSH1 0x40 DUP4 ADD MSTORE PUSH1 0x60 SWAP1 SWAP2 ADD MSTORE SWAP2 SWAP1 POP JUMP JUMPDEST PUSH4 0x4E487B71 PUSH1 0xE0 SHL PUSH1 0x0 MSTORE PUSH1 0x11 PUSH1 0x4 MSTORE PUSH1 0x24 PUSH1 0x0 REVERT JUMPDEST DUP1 DUP3 ADD DUP1 DUP3 GT ISZERO PUSH2 0x2303 JUMPI PUSH2 0x2303 PUSH2 0x2768 JUMP JUMPDEST PUSH1 0x1 DUP2 DUP2 SHR SWAP1 DUP3 AND DUP1 PUSH2 0x27A5 JUMPI PUSH1 0x7F DUP3 AND SWAP2 POP JUMPDEST PUSH1 0x20 DUP3 LT DUP2 SUB PUSH2 0x729 JUMPI PUSH4 0x4E487B71 PUSH1 0xE0 SHL PUSH1 0x0 MSTORE PUSH1 0x22 PUSH1 0x4 MSTORE PUSH1 0x24 PUSH1 0x0 REVERT JUMPDEST PUSH4 0x4E487B71 PUSH1 0xE0 SHL PUSH1 0x0 MSTORE PUSH1 0x32 PUSH1 0x4 MSTORE PUSH1 0x24 PUSH1 0x0 REVERT JUMPDEST PUSH1 0x0 PUSH1 0x1 DUP3 ADD PUSH2 0x27ED JUMPI PUSH2 0x27ED PUSH2 0x2768 JUMP JUMPDEST POP PUSH1 0x1 ADD SWAP1 JUMP JUMPDEST PUSH1 0x20 DUP1 DUP3 MSTORE PUSH1 0x1F SWAP1 DUP3 ADD MSTORE PUSH32 0x5265656E7472616E637947756172643A207265656E7472616E742063616C6C00 PUSH1 0x40 DUP3 ADD MSTORE PUSH1 0x60 ADD SWAP1 JUMP JUMPDEST PUSH1 0xA0 DUP2 MSTORE PUSH1 0x0 DUP1 DUP8 SLOAD PUSH2 0x283D DUP2 PUSH2 0x2791 JUMP JUMPDEST DUP1 PUSH1 0xA0 DUP7 ADD MSTORE PUSH1 0xC0 PUSH1 0x1 DUP1 DUP5 AND PUSH1 0x0 DUP2 EQ PUSH2 0x285F JUMPI PUSH1 0x1 DUP2 EQ PUSH2 0x2879 JUMPI PUSH2 0x28AA JUMP JUMPDEST PUSH1 0xFF NOT DUP6 AND DUP9 DUP5 ADD MSTORE DUP4 ISZERO ISZERO PUSH1 0x5 SHL DUP9 ADD DUP4 ADD SWAP6 POP PUSH2 0x28AA JUMP JUMPDEST DUP13 PUSH1 0x0 MSTORE PUSH1 0x20 DUP1 PUSH1 0x0 KECCAK256 PUSH1 0x0 JUMPDEST DUP7 DUP2 LT ISZERO PUSH2 0x28A1 JUMPI DUP2 SLOAD DUP12 DUP3 ADD DUP8 ADD MSTORE SWAP1 DUP5 ADD SWAP1 DUP3 ADD PUSH2 0x2886 JUMP JUMPDEST DUP11 ADD DUP6 ADD SWAP8 POP POP POP JUMPDEST POP POP POP POP PUSH1 0x1 PUSH1 0x1 PUSH1 0xA0 SHL SUB DUP9 AND PUSH1 0x20 DUP6 ADD MSTORE POP SWAP1 POP PUSH1 0x1 PUSH1 0x1 PUSH1 0xA0 SHL SUB DUP6 AND PUSH1 0x40 DUP4 ADD MSTORE PUSH1 0x60 DUP3 ADD SWAP4 SWAP1 SWAP4 MSTORE PUSH1 0x80 ADD MSTORE SWAP4 SWAP3 POP POP POP JUMP JUMPDEST PUSH1 0x20 DUP1 DUP3 MSTORE PUSH1 0x2C SWAP1 DUP3 ADD MSTORE PUSH32 0x46756E6374696F6E206D7573742062652063616C6C6564207468726F75676820 PUSH1 0x40 DUP3 ADD MSTORE PUSH12 0x19195B1959D85D1958D85B1B PUSH1 0xA2 SHL PUSH1 0x60 DUP3 ADD MSTORE PUSH1 0x80 ADD SWAP1 JUMP JUMPDEST PUSH1 0x20 DUP1 DUP3 MSTORE PUSH1 0x2C SWAP1 DUP3 ADD MSTORE PUSH32 0x46756E6374696F6E206D7573742062652063616C6C6564207468726F75676820 PUSH1 0x40 DUP3 ADD MSTORE PUSH12 0x6163746976652070726F7879 PUSH1 0xA0 SHL PUSH1 0x60 DUP3 ADD MSTORE PUSH1 0x80 ADD SWAP1 JUMP JUMPDEST DUP1 DUP3 MUL DUP2 ISZERO DUP3 DUP3 DIV DUP5 EQ OR PUSH2 0x2303 JUMPI PUSH2 0x2303 PUSH2 0x2768 JUMP JUMPDEST PUSH1 0x0 DUP3 PUSH2 0x29AE JUMPI PUSH4 0x4E487B71 PUSH1 0xE0 SHL PUSH1 0x0 MSTORE PUSH1 0x12 PUSH1 0x4 MSTORE PUSH1 0x24 PUSH1 0x0 REVERT JUMPDEST POP DIV SWAP1 JUMP JUMPDEST DUP2 DUP2 SUB DUP2 DUP2 GT ISZERO PUSH2 0x2303 JUMPI PUSH2 0x2303 PUSH2 0x2768 JUMP JUMPDEST PUSH1 0x1F DUP3 GT ISZERO PUSH2 0x1E41 JUMPI PUSH1 0x0 DUP2 DUP2 MSTORE PUSH1 0x20 DUP2 KECCAK256 PUSH1 0x1F DUP6 ADD PUSH1 0x5 SHR DUP2 ADD PUSH1 0x20 DUP7 LT ISZERO PUSH2 0x29ED JUMPI POP DUP1 JUMPDEST PUSH1 0x1F DUP6 ADD PUSH1 0x5 SHR DUP3 ADD SWAP2 POP JUMPDEST DUP2 DUP2 LT ISZERO PUSH2 0x2A0C JUMPI DUP3 DUP2 SSTORE PUSH1 0x1 ADD PUSH2 0x29F9 JUMP JUMPDEST POP POP POP POP POP POP JUMP JUMPDEST DUP2 MLOAD PUSH8 0xFFFFFFFFFFFFFFFF DUP2 GT ISZERO PUSH2 0x2A2E JUMPI PUSH2 0x2A2E PUSH2 0x25AB JUMP JUMPDEST PUSH2 0x2A42 DUP2 PUSH2 0x2A3C DUP5 SLOAD PUSH2 0x2791 JUMP JUMPDEST DUP5 PUSH2 0x29C6 JUMP JUMPDEST PUSH1 0x20 DUP1 PUSH1 0x1F DUP4 GT PUSH1 0x1 DUP2 EQ PUSH2 0x2A77 JUMPI PUSH1 0x0 DUP5 ISZERO PUSH2 0x2A5F JUMPI POP DUP6 DUP4 ADD MLOAD JUMPDEST PUSH1 0x0 NOT PUSH1 0x3 DUP7 SWAP1 SHL SHR NOT AND PUSH1 0x1 DUP6 SWAP1 SHL OR DUP6 SSTORE PUSH2 0x2A0C JUMP JUMPDEST PUSH1 0x0 DUP6 DUP2 MSTORE PUSH1 0x20 DUP2 KECCAK256 PUSH1 0x1F NOT DUP7 AND SWAP2 JUMPDEST DUP3 DUP2 LT ISZERO PUSH2 0x2AA6 JUMPI DUP9 DUP7 ADD MLOAD DUP3 SSTORE SWAP5 DUP5 ADD SWAP5 PUSH1 0x1 SWAP1 SWAP2 ADD SWAP1 DUP5 ADD PUSH2 0x2A87 JUMP JUMPDEST POP DUP6 DUP3 LT ISZERO PUSH2 0x2AC4 JUMPI DUP8 DUP6 ADD MLOAD PUSH1 0x0 NOT PUSH1 0x3 DUP9 SWAP1 SHL PUSH1 0xF8 AND SHR NOT AND DUP2 SSTORE JUMPDEST POP POP POP POP POP PUSH1 0x1 SWAP1 DUP2 SHL ADD SWAP1 SSTORE POP JUMP JUMPDEST PUSH1 0x80 DUP2 MSTORE PUSH1 0x0 PUSH2 0x2AE7 PUSH1 0x80 DUP4 ADD DUP8 PUSH2 0x23E2 JUMP JUMPDEST PUSH1 0x1 PUSH1 0x1 PUSH1 0xA0 SHL SUB DUP7 DUP2 AND PUSH1 0x20 DUP6 ADD MSTORE DUP6 AND PUSH1 0x40 DUP5 ADD MSTORE SWAP1 POP PUSH2 0x2B0D PUSH1 0x60 DUP4 ADD DUP5 PUSH2 0x2424 JUMP JUMPDEST SWAP6 SWAP5 POP POP POP POP POP JUMP JUMPDEST PUSH1 0x0 PUSH1 0x20 DUP3 DUP5 SUB SLT ISZERO PUSH2 0x2B28 JUMPI PUSH1 0x0 DUP1 REVERT JUMPDEST POP MLOAD SWAP2 SWAP1 POP JUMP JUMPDEST PUSH1 0x20 DUP1 DUP3 MSTORE PUSH1 0x2B SWAP1 DUP3 ADD MSTORE PUSH32 0x496E697469616C697A61626C653A20636F6E7472616374206973206E6F742069 PUSH1 0x40 DUP3 ADD MSTORE PUSH11 0x6E697469616C697A696E67 PUSH1 0xA8 SHL PUSH1 0x60 DUP3 ADD MSTORE PUSH1 0x80 ADD SWAP1 JUMP JUMPDEST PUSH1 0x0 DUP3 MLOAD PUSH2 0x2B8C DUP2 DUP5 PUSH1 0x20 DUP8 ADD PUSH2 0x23BE JUMP JUMPDEST SWAP2 SWAP1 SWAP2 ADD SWAP3 SWAP2 POP POP JUMP JUMPDEST PUSH1 0x20 DUP2 MSTORE PUSH1 0x0 PUSH2 0x2342 PUSH1 0x20 DUP4 ADD DUP5 PUSH2 0x23E2 JUMP INVALID CALLDATASIZE ADDMOD SWAP5 LOG1 EXTCODESIZE LOG1 LOG3 0x21 MOD PUSH8 0xC828492DB98DCA3E KECCAK256 PUSH23 0xCC3735A920A3CA505D382BBC416464726573733A206C6F PUSH24 0x2D6C6576656C2064656C65676174652063616C6C20666169 PUSH13 0x6564A2646970667358221220E1 0xC1 0x49 0x27 CODESIZE PUSH11 0x6B65F4F31D8C0724400150 0xDE BYTE 0x22 PUSH28 0xED4D41B958C4C267BB0B7364736F6C63430008110033000000000000 "},"methodIdentifiers":{"claimAfterExpire(uint256)":"9b0731af","deliver(uint256)":"3bd5d173","deliverByAdmin(uint256)":"e52b3b37","fetchEscrow(uint256)":"d0f81cbf","fetchEscrowsPaginated(uint256,uint256)":"ede6d084","fetchMyEscrows()":"261582b9","initialize()":"8129fc1c","newEscrow(address,string,uint256)":"6fbac0fa","owner()":"8da5cb5b","proxiableUUID()":"52d1902d","raiseDispute(uint256)":"a5c1674e","refund(uint256)":"278ecde1","renounceOwnership()":"715018a6","transferOwnership(address)":"f2fde38b","upgradeTo(address)":"3659cfe6","upgradeToAndCall(address,bytes)":"4f1ef286"}},"storageLayout":{"storage":[{"astId":527,"contract":"contracts/EscrowHub.sol:EscrowHub","label":"_initialized","offset":0,"slot":"0","type":"t_uint8"},{"astId":530,"contract":"contracts/EscrowHub.sol:EscrowHub","label":"_initializing","offset":1,"slot":"0","type":"t_bool"},{"astId":821,"contract":"contracts/EscrowHub.sol:EscrowHub","label":"_status","offset":0,"slot":"1","type":"t_uint256"},{"astId":865,"contract":"contracts/EscrowHub.sol:EscrowHub","label":"__gap","offset":0,"slot":"2","type":"t_array(t_uint256)49_storage"},{"astId":1150,"contract":"contracts/EscrowHub.sol:EscrowHub","label":"__gap","offset":0,"slot":"51","type":"t_array(t_uint256)50_storage"},{"astId":10,"contract":"contracts/EscrowHub.sol:EscrowHub","label":"_owner","offset":0,"slot":"101","type":"t_address"},{"astId":130,"contract":"contracts/EscrowHub.sol:EscrowHub","label":"__gap","offset":0,"slot":"102","type":"t_array(t_uint256)49_storage"},{"astId":509,"contract":"contracts/EscrowHub.sol:EscrowHub","label":"__gap","offset":0,"slot":"151","type":"t_array(t_uint256)50_storage"},{"astId":806,"contract":"contracts/EscrowHub.sol:EscrowHub","label":"__gap","offset":0,"slot":"201","type":"t_array(t_uint256)50_storage"},{"astId":1562,"contract":"contracts/EscrowHub.sol:EscrowHub","label":"_escrowIds","offset":0,"slot":"251","type":"t_struct(Counter)1157_storage"},{"astId":1567,"contract":"contracts/EscrowHub.sol:EscrowHub","label":"idToEscrow","offset":0,"slot":"252","type":"t_mapping(t_uint256,t_struct(Escrow)1559_storage)"},{"astId":1571,"contract":"contracts/EscrowHub.sol:EscrowHub","label":"addressToEscrowCount","offset":0,"slot":"253","type":"t_mapping(t_address,t_uint256)"},{"astId":1577,"contract":"contracts/EscrowHub.sol:EscrowHub","label":"addressToEscrowIndexes","offset":0,"slot":"254","type":"t_mapping(t_address,t_mapping(t_uint256,t_uint256))"}],"types":{"t_address":{"encoding":"inplace","label":"address","numberOfBytes":"20"},"t_address_payable":{"encoding":"inplace","label":"address payable","numberOfBytes":"20"},"t_array(t_uint256)49_storage":{"base":"t_uint256","encoding":"inplace","label":"uint256[49]","numberOfBytes":"1568"},"t_array(t_uint256)50_storage":{"base":"t_uint256","encoding":"inplace","label":"uint256[50]","numberOfBytes":"1600"},"t_bool":{"encoding":"inplace","label":"bool","numberOfBytes":"1"},"t_enum(EscrowState)1537":{"encoding":"inplace","label":"enum EscrowHub.EscrowState","numberOfBytes":"1"},"t_mapping(t_address,t_mapping(t_uint256,t_uint256))":{"encoding":"mapping","key":"t_address","label":"mapping(address => mapping(uint256 => uint256))","numberOfBytes":"32","value":"t_mapping(t_uint256,t_uint256)"},"t_mapping(t_address,t_uint256)":{"encoding":"mapping","key":"t_address","label":"mapping(address => uint256)","numberOfBytes":"32","value":"t_uint256"},"t_mapping(t_uint256,t_struct(Escrow)1559_storage)":{"encoding":"mapping","key":"t_uint256","label":"mapping(uint256 => struct EscrowHub.Escrow)","numberOfBytes":"32","value":"t_struct(Escrow)1559_storage"},"t_mapping(t_uint256,t_uint256)":{"encoding":"mapping","key":"t_uint256","label":"mapping(uint256 => uint256)","numberOfBytes":"32","value":"t_uint256"},"t_string_storage":{"encoding":"bytes","label":"string","numberOfBytes":"32"},"t_struct(Counter)1157_storage":{"encoding":"inplace","label":"struct CountersUpgradeable.Counter","members":[{"astId":1156,"contract":"contracts/EscrowHub.sol:EscrowHub","label":"_value","offset":0,"slot":"0","type":"t_uint256"}],"numberOfBytes":"32"},"t_struct(Escrow)1559_storage":{"encoding":"inplace","label":"struct EscrowHub.Escrow","members":[{"astId":1539,"contract":"contracts/EscrowHub.sol:EscrowHub","label":"id","offset":0,"slot":"0","type":"t_uint256"},{"astId":1541,"contract":"contracts/EscrowHub.sol:EscrowHub","label":"cid","offset":0,"slot":"1","type":"t_string_storage"},{"astId":1543,"contract":"contracts/EscrowHub.sol:EscrowHub","label":"buyer","offset":0,"slot":"2","type":"t_address_payable"},{"astId":1545,"contract":"contracts/EscrowHub.sol:EscrowHub","label":"seller","offset":0,"slot":"3","type":"t_address_payable"},{"astId":1547,"contract":"contracts/EscrowHub.sol:EscrowHub","label":"amount","offset":0,"slot":"4","type":"t_uint256"},{"astId":1549,"contract":"contracts/EscrowHub.sol:EscrowHub","label":"fee","offset":0,"slot":"5","type":"t_uint256"},{"astId":1551,"contract":"contracts/EscrowHub.sol:EscrowHub","label":"createdAt","offset":0,"slot":"6","type":"t_uint256"},{"astId":1553,"contract":"contracts/EscrowHub.sol:EscrowHub","label":"expireAt","offset":0,"slot":"7","type":"t_uint256"},{"astId":1555,"contract":"contracts/EscrowHub.sol:EscrowHub","label":"clearAt","offset":0,"slot":"8","type":"t_uint256"},{"astId":1558,"contract":"contracts/EscrowHub.sol:EscrowHub","label":"state","offset":0,"slot":"9","type":"t_enum(EscrowState)1537"}],"numberOfBytes":"320"},"t_uint256":{"encoding":"inplace","label":"uint256","numberOfBytes":"32"},"t_uint8":{"encoding":"inplace","label":"uint8","numberOfBytes":"1"}}}}}}