{
  "_format": "hh-sol-artifact-1",
  "contractName": "EscrowHub",
  "sourceName": "contracts/EscrowHub.sol",
  "abi": [
    {
      "inputs": [],
      "stateMutability": "nonpayable",
      "type": "constructor"
    },
    {
      "anonymous": false,
      "inputs": [
        {
          "indexed": false,
          "internalType": "address",
          "name": "previousAdmin",
          "type": "address"
        },
        {
          "indexed": false,
          "internalType": "address",
          "name": "newAdmin",
          "type": "address"
        }
      ],
      "name": "AdminChanged",
      "type": "event"
    },
    {
      "anonymous": false,
      "inputs": [
        {
          "indexed": true,
          "internalType": "address",
          "name": "beacon",
          "type": "address"
        }
      ],
      "name": "BeaconUpgraded",
      "type": "event"
    },
    {
      "anonymous": false,
      "inputs": [
        {
          "indexed": true,
          "internalType": "uint256",
          "name": "escrowId",
          "type": "uint256"
        },
        {
          "indexed": false,
          "internalType": "string",
          "name": "cid",
          "type": "string"
        },
        {
          "indexed": false,
          "internalType": "address",
          "name": "buyer",
          "type": "address"
        },
        {
          "indexed": false,
          "internalType": "address",
          "name": "seller",
          "type": "address"
        },
        {
          "indexed": true,
          "internalType": "uint256",
          "name": "amount",
          "type": "uint256"
        },
        {
          "indexed": true,
          "internalType": "uint256",
          "name": "fee",
          "type": "uint256"
        },
        {
          "indexed": false,
          "internalType": "enum EscrowHub.EscrowState",
          "name": "state",
          "type": "uint8"
        }
      ],
      "name": "EscrowCreated",
      "type": "event"
    },
    {
      "anonymous": false,
      "inputs": [
        {
          "indexed": true,
          "internalType": "uint256",
          "name": "escrowId",
          "type": "uint256"
        },
        {
          "indexed": false,
          "internalType": "string",
          "name": "cid",
          "type": "string"
        },
        {
          "indexed": false,
          "internalType": "address",
          "name": "buyer",
          "type": "address"
        },
        {
          "indexed": false,
          "internalType": "address",
          "name": "seller",
          "type": "address"
        },
        {
          "indexed": false,
          "internalType": "uint256",
          "name": "amount",
          "type": "uint256"
        },
        {
          "indexed": false,
          "internalType": "uint256",
          "name": "fee",
          "type": "uint256"
        },
        {
          "indexed": true,
          "internalType": "enum EscrowHub.EscrowState",
          "name": "state",
          "type": "uint8"
        }
      ],
      "name": "EscrowUpdated",
      "type": "event"
    },
    {
      "anonymous": false,
      "inputs": [
        {
          "indexed": false,
          "internalType": "uint8",
          "name": "version",
          "type": "uint8"
        }
      ],
      "name": "Initialized",
      "type": "event"
    },
    {
      "anonymous": false,
      "inputs": [
        {
          "indexed": true,
          "internalType": "address",
          "name": "previousOwner",
          "type": "address"
        },
        {
          "indexed": true,
          "internalType": "address",
          "name": "newOwner",
          "type": "address"
        }
      ],
      "name": "OwnershipTransferred",
      "type": "event"
    },
    {
      "anonymous": false,
      "inputs": [
        {
          "indexed": true,
          "internalType": "address",
          "name": "implementation",
          "type": "address"
        }
      ],
      "name": "Upgraded",
      "type": "event"
    },
    {
      "inputs": [
        {
          "internalType": "uint256",
          "name": "_escrowId",
          "type": "uint256"
        }
      ],
      "name": "claimAfterExpire",
      "outputs": [],
      "stateMutability": "nonpayable",
      "type": "function"
    },
    {
      "inputs": [
        {
          "internalType": "uint256",
          "name": "_escrowId",
          "type": "uint256"
        }
      ],
      "name": "deliver",
      "outputs": [],
      "stateMutability": "nonpayable",
      "type": "function"
    },
    {
      "inputs": [
        {
          "internalType": "uint256",
          "name": "_escrowId",
          "type": "uint256"
        }
      ],
      "name": "deliverByAdmin",
      "outputs": [],
      "stateMutability": "nonpayable",
      "type": "function"
    },
    {
      "inputs": [
        {
          "internalType": "uint256",
          "name": "escrowId",
          "type": "uint256"
        }
      ],
      "name": "fetchEscrow",
      "outputs": [
        {
          "components": [
            {
              "internalType": "uint256",
              "name": "id",
              "type": "uint256"
            },
            {
              "internalType": "string",
              "name": "cid",
              "type": "string"
            },
            {
              "internalType": "address payable",
              "name": "buyer",
              "type": "address"
            },
            {
              "internalType": "address payable",
              "name": "seller",
              "type": "address"
            },
            {
              "internalType": "uint256",
              "name": "amount",
              "type": "uint256"
            },
            {
              "internalType": "uint256",
              "name": "fee",
              "type": "uint256"
            },
            {
              "internalType": "uint256",
              "name": "createdAt",
              "type": "uint256"
            },
            {
              "internalType": "uint256",
              "name": "expireAt",
              "type": "uint256"
            },
            {
              "internalType": "uint256",
              "name": "clearAt",
              "type": "uint256"
            },
            {
              "internalType": "enum EscrowHub.EscrowState",
              "name": "state",
              "type": "uint8"
            }
          ],
          "internalType": "struct EscrowHub.Escrow",
          "name": "",
          "type": "tuple"
        }
      ],
      "stateMutability": "view",
      "type": "function"
    },
    {
      "inputs": [
        {
          "internalType": "uint256",
          "name": "cursor",
          "type": "uint256"
        },
        {
          "internalType": "uint256",
          "name": "perPageCount",
          "type": "uint256"
        }
      ],
      "name": "fetchEscrowsPaginated",
      "outputs": [
        {
          "components": [
            {
              "internalType": "uint256",
              "name": "id",
              "type": "uint256"
            },
            {
              "internalType": "string",
              "name": "cid",
              "type": "string"
            },
            {
              "internalType": "address payable",
              "name": "buyer",
              "type": "address"
            },
            {
              "internalType": "address payable",
              "name": "seller",
              "type": "address"
            },
            {
              "internalType": "uint256",
              "name": "amount",
              "type": "uint256"
            },
            {
              "internalType": "uint256",
              "name": "fee",
              "type": "uint256"
            },
            {
              "internalType": "uint256",
              "name": "createdAt",
              "type": "uint256"
            },
            {
              "internalType": "uint256",
              "name": "expireAt",
              "type": "uint256"
            },
            {
              "internalType": "uint256",
              "name": "clearAt",
              "type": "uint256"
            },
            {
              "internalType": "enum EscrowHub.EscrowState",
              "name": "state",
              "type": "uint8"
            }
          ],
          "internalType": "struct EscrowHub.Escrow[]",
          "name": "data",
          "type": "tuple[]"
        },
        {
          "internalType": "uint256",
          "name": "totalItemCount",
          "type": "uint256"
        },
        {
          "internalType": "bool",
          "name": "hasNextPage",
          "type": "bool"
        },
        {
          "internalType": "uint256",
          "name": "nextCursor",
          "type": "uint256"
        }
      ],
      "stateMutability": "view",
      "type": "function"
    },
    {
      "inputs": [],
      "name": "fetchMyEscrows",
      "outputs": [
        {
          "components": [
            {
              "internalType": "uint256",
              "name": "id",
              "type": "uint256"
            },
            {
              "internalType": "string",
              "name": "cid",
              "type": "string"
            },
            {
              "internalType": "address payable",
              "name": "buyer",
              "type": "address"
            },
            {
              "internalType": "address payable",
              "name": "seller",
              "type": "address"
            },
            {
              "internalType": "uint256",
              "name": "amount",
              "type": "uint256"
            },
            {
              "internalType": "uint256",
              "name": "fee",
              "type": "uint256"
            },
            {
              "internalType": "uint256",
              "name": "createdAt",
              "type": "uint256"
            },
            {
              "internalType": "uint256",
              "name": "expireAt",
              "type": "uint256"
            },
            {
              "internalType": "uint256",
              "name": "clearAt",
              "type": "uint256"
            },
            {
              "internalType": "enum EscrowHub.EscrowState",
              "name": "state",
              "type": "uint8"
            }
          ],
          "internalType": "struct EscrowHub.Escrow[]",
          "name": "",
          "type": "tuple[]"
        }
      ],
      "stateMutability": "view",
      "type": "function"
    },
    {
      "inputs": [],
      "name": "initialize",
      "outputs": [],
      "stateMutability": "nonpayable",
      "type": "function"
    },
    {
      "inputs": [
        {
          "internalType": "address",
          "name": "_seller",
          "type": "address"
        },
        {
          "internalType": "string",
          "name": "_cid",
          "type": "string"
        },
        {
          "internalType": "uint256",
          "name": "expireIn",
          "type": "uint256"
        }
      ],
      "name": "newEscrow",
      "outputs": [],
      "stateMutability": "payable",
      "type": "function"
    },
    {
      "inputs": [],
      "name": "owner",
      "outputs": [
        {
          "internalType": "address",
          "name": "",
          "type": "address"
        }
      ],
      "stateMutability": "view",
      "type": "function"
    },
    {
      "inputs": [],
      "name": "proxiableUUID",
      "outputs": [
        {
          "internalType": "bytes32",
          "name": "",
          "type": "bytes32"
        }
      ],
      "stateMutability": "view",
      "type": "function"
    },
    {
      "inputs": [
        {
          "internalType": "uint256",
          "name": "_escrowId",
          "type": "uint256"
        }
      ],
      "name": "raiseDispute",
      "outputs": [],
      "stateMutability": "nonpayable",
      "type": "function"
    },
    {
      "inputs": [
        {
          "internalType": "uint256",
          "name": "_escrowId",
          "type": "uint256"
        }
      ],
      "name": "refund",
      "outputs": [],
      "stateMutability": "nonpayable",
      "type": "function"
    },
    {
      "inputs": [],
      "name": "renounceOwnership",
      "outputs": [],
      "stateMutability": "nonpayable",
      "type": "function"
    },
    {
      "inputs": [
        {
          "internalType": "address",
          "name": "newOwner",
          "type": "address"
        }
      ],
      "name": "transferOwnership",
      "outputs": [],
      "stateMutability": "nonpayable",
      "type": "function"
    },
    {
      "inputs": [
        {
          "internalType": "address",
          "name": "newImplementation",
          "type": "address"
        }
      ],
      "name": "upgradeTo",
      "outputs": [],
      "stateMutability": "nonpayable",
      "type": "function"
    },
    {
      "inputs": [
        {
          "internalType": "address",
          "name": "newImplementation",
          "type": "address"
        },
        {
          "internalType": "bytes",
          "name": "data",
          "type": "bytes"
        }
      ],
      "name": "upgradeToAndCall",
      "outputs": [],
      "stateMutability": "payable",
      "type": "function"
    }
  ],
  "bytecode": "0x60a0604052306080523480156200001557600080fd5b506200002062000026565b620000e8565b600054610100900460ff1615620000935760405162461bcd60e51b815260206004820152602760248201527f496e697469616c697a61626c653a20636f6e747261637420697320696e697469604482015266616c697a696e6760c81b606482015260840160405180910390fd5b60005460ff9081161015620000e6576000805460ff191660ff9081179091556040519081527f7f26b83ff96e1f2b6a682f133852f6798a09c465da95921460cefb38474024989060200160405180910390a15b565b608051612c2662000120600039600081816109ae015281816109ee01528181610c4c01528181610c8c0152610d1f0152612c266000f3fe6080604052600436106100f35760003560e01c80638129fc1c1161008a578063d0f81cbf11610059578063d0f81cbf14610260578063e52b3b371461028d578063ede6d084146102ad578063f2fde38b146102dd57600080fd5b80638129fc1c146101e35780638da5cb5b146101f85780639b0731af14610220578063a5c1674e1461024057600080fd5b80634f1ef286116100c65780634f1ef2861461018557806352d1902d146101985780636fbac0fa146101bb578063715018a6146101ce57600080fd5b8063261582b9146100f8578063278ecde1146101235780633659cfe6146101455780633bd5d17314610165575b600080fd5b34801561010457600080fd5b5061010d6102fd565b60405161011a9190612548565b60405180910390f35b34801561012f57600080fd5b5061014361013e36600461255b565b61072f565b005b34801561015157600080fd5b50610143610160366004612590565b6109a4565b34801561017157600080fd5b5061014361018036600461255b565b610a83565b610143610193366004612637565b610c42565b3480156101a457600080fd5b506101ad610d12565b60405190815260200161011a565b6101436101c9366004612699565b610dc5565b3480156101da57600080fd5b506101436110a8565b3480156101ef57600080fd5b506101436110bc565b34801561020457600080fd5b506065546040516001600160a01b03909116815260200161011a565b34801561022c57600080fd5b5061014361023b36600461255b565b6111dc565b34801561024c57600080fd5b5061014361025b36600461255b565b6113fd565b34801561026c57600080fd5b5061028061027b36600461255b565b611524565b60405161011a9190612704565b34801561029957600080fd5b506101436102a836600461255b565b611672565b3480156102b957600080fd5b506102cd6102c8366004612717565b611870565b60405161011a9493929190612739565b3480156102e957600080fd5b506101436102f8366004612590565b611d90565b6060336103126065546001600160a01b031690565b6001600160a01b03160361051157600061032b60fb5490565b905060008167ffffffffffffffff811115610348576103486125ab565b60405190808252806020026020018201604052801561038157816020015b61036e612349565b8152602001906001900390816103665790505b50905060005b8281101561050a5760fc600061039e83600161277e565b815260200190815260200160002060405180610140016040529081600082015481526020016001820180546103d290612791565b80601f01602080910402602001604051908101604052809291908181526020018280546103fe90612791565b801561044b5780601f106104205761010080835404028352916020019161044b565b820191906000526020600020905b81548152906001019060200180831161042e57829003601f168201915b505050918352505060028201546001600160a01b0390811660208301526003830154166040820152600480830154606083015260058301546080830152600683015460a0830152600783015460c0830152600883015460e083015260098301546101009092019160ff16908111156104c5576104c561240e565b60048111156104d6576104d661240e565b815250508282815181106104ec576104ec6127c5565b60200260200101819052508080610502906127db565b915050610387565b5092915050565b33600090815260fd602052604081205467ffffffffffffffff811115610539576105396125ab565b60405190808252806020026020018201604052801561057257816020015b61055f612349565b8152602001906001900390816105575790505b50905060005b33600090815260fd60205260409020548110156107295733600090815260fe6020526040812060fc9190816105ae85600161277e565b815260200190815260200160002054815260200190815260200160002060405180610140016040529081600082015481526020016001820180546105f190612791565b80601f016020809104026020016040519081016040528092919081815260200182805461061d90612791565b801561066a5780601f1061063f5761010080835404028352916020019161066a565b820191906000526020600020905b81548152906001019060200180831161064d57829003601f168201915b505050918352505060028201546001600160a01b0390811660208301526003830154166040820152600480830154606083015260058301546080830152600683015460a0830152600783015460c0830152600883015460e083015260098301546101009092019160ff16908111156106e4576106e461240e565b60048111156106f5576106f561240e565b8152505082828151811061070b5761070b6127c5565b60200260200101819052508080610721906127db565b915050610578565b50919050565b600081815260fc602052604090206003015481906001600160a01b03163314806107725750336107676065546001600160a01b031690565b6001600160a01b0316145b6107d85760405162461bcd60e51b815260206004820152602c60248201527f4f6e6c792073656c6c6572206f72204f776e65722063616e20706572666f726d60448201526b103a3434b99030b1ba34b7b760a11b60648201526084015b60405180910390fd5b6002600154036107fa5760405162461bcd60e51b81526004016107cf906127f4565b6002600155600082815260fc602052604081206009015460ff1660048111156108255761082561240e565b148061085657506001600083815260fc602052604090206009015460ff1660048111156108545761085461240e565b145b6108a25760405162461bcd60e51b815260206004820152601960248201527f43616e277420726566756e64207468697320657363726f772e0000000000000060448201526064016107cf565b600082815260fc60205260409020600281015460058201546004909201546001600160a01b03909116916108fc916108da919061277e565b6040518115909202916000818181858888f19350505050158015610902573d6000803e3d6000fd5b50600082815260fc60205260409020426008820155600901805460ff191660049081179091555b600083815260fc6020526040908190206002810154600382015460048301546005840154945188957facfcb6d1fa91c83112102ce242b5502826bbc1a8114bc5030f4b4bd844dc3e6795610994956001909101946001600160a01b039182169491169290919061282b565b60405180910390a3505060018055565b6001600160a01b037f00000000000000000000000000000000000000000000000000000000000000001630036109ec5760405162461bcd60e51b81526004016107cf906128e2565b7f00000000000000000000000000000000000000000000000000000000000000006001600160a01b0316610a35600080516020612baa833981519152546001600160a01b031690565b6001600160a01b031614610a5b5760405162461bcd60e51b81526004016107cf9061292e565b610a6481611e06565b60408051600080825260208201909252610a8091839190611e0e565b50565b600081815260fc602052604090206002015481906001600160a01b03163314610ae65760405162461bcd60e51b81526020600482015260156024820152744f6e6c792042757965722043616e2041636365737360581b60448201526064016107cf565b600260015403610b085760405162461bcd60e51b81526004016107cf906127f4565b6002600155600082815260fc602052604081206009015460ff166004811115610b3357610b3361240e565b14610b805760405162461bcd60e51b815260206004820152601e60248201527f596f752063616e27742064656c69766572207468697320657363726f772e000060448201526064016107cf565b600082815260fc6020526040808220600381015460049091015491516001600160a01b039091169282156108fc02929190818181858888f19350505050158015610bce573d6000803e3d6000fd5b50606554600083815260fc60205260408082206005015490516001600160a01b03909316926108fc82150292818181858888f19350505050158015610c17573d6000803e3d6000fd5b50600082815260fc60205260409020426008820155600901805460ff19166002908117909155610929565b6001600160a01b037f0000000000000000000000000000000000000000000000000000000000000000163003610c8a5760405162461bcd60e51b81526004016107cf906128e2565b7f00000000000000000000000000000000000000000000000000000000000000006001600160a01b0316610cd3600080516020612baa833981519152546001600160a01b031690565b6001600160a01b031614610cf95760405162461bcd60e51b81526004016107cf9061292e565b610d0282611e06565b610d0e82826001611e0e565b5050565b6000306001600160a01b037f00000000000000000000000000000000000000000000000000000000000000001614610db25760405162461bcd60e51b815260206004820152603860248201527f555550535570677261646561626c653a206d757374206e6f742062652063616c60448201527f6c6564207468726f7567682064656c656761746563616c6c000000000000000060648201526084016107cf565b50600080516020612baa83398151915290565b600260015403610de75760405162461bcd60e51b81526004016107cf906127f4565b6002600155610dfa60fb80546001019055565b6000610e0560fb5490565b9050662386f26fc10000341015610e705760405162461bcd60e51b815260206004820152602960248201527f457363726f77206d757374206265206c6172676572207468656e206d696e696d6044820152681d5b48185b5bdd5b9d60ba1b60648201526084016107cf565b60006064610e7f60013461297a565b610e899190612991565b90506000610e9782346129b3565b9050604051806101400160405280848152602001868152602001336001600160a01b03168152602001876001600160a01b031681526020018281526020018381526020014281526020018581526020016000815260200160006004811115610f0157610f0161240e565b9052600084815260fc6020908152604090912082518155908201516001820190610f2b9082612a14565b5060408201516002820180546001600160a01b039283166001600160a01b0319918216179091556060840151600384018054919093169116179055608082015160048083019190915560a0830151600583015560c0830151600683015560e0830151600783015561010083015160088301556101208301516009830180549192909160ff1916906001908490811115610fc657610fc661240e565b02179055505033600090815260fd6020526040902054610fe89150600161277e565b33600090815260fd6020818152604080842085905560fe82528084209484529381528383208790556001600160a01b038a16835252205461102a90600161277e565b6001600160a01b038716600090815260fd6020908152604080832084905560fe825280832093835292905281812085905590518391839186917fb9e71d1f685b313accb4809b03f62dc9601718815d3758ed626f3802e7f005b191611094918b9133918e91612ad4565b60405180910390a450506001805550505050565b6110b0611f7e565b6110ba6000611fd8565b565b600054610100900460ff16158080156110dc5750600054600160ff909116105b806110f65750303b1580156110f6575060005460ff166001145b6111595760405162461bcd60e51b815260206004820152602e60248201527f496e697469616c697a61626c653a20636f6e747261637420697320616c72656160448201526d191e481a5b9a5d1a585b1a5e995960921b60648201526084016107cf565b6000805460ff19166001179055801561117c576000805461ff0019166101001790555b61118461202a565b61118c612059565b611194612088565b8015610a80576000805461ff0019169055604051600181527f7f26b83ff96e1f2b6a682f133852f6798a09c465da95921460cefb38474024989060200160405180910390a150565b600081815260fc602052604090206003015481906001600160a01b031633146112405760405162461bcd60e51b81526020600482015260166024820152754f6e6c792053656c6c65722043616e2041636365737360501b60448201526064016107cf565b6002600154036112625760405162461bcd60e51b81526004016107cf906127f4565b6002600155600082815260fc60205260409020600701544210156112c85760405162461bcd60e51b815260206004820152601860248201527f457363726f772069736e2774206578706972656420796574000000000000000060448201526064016107cf565b600082815260fc602052604081206009015460ff1660048111156112ee576112ee61240e565b1461133b5760405162461bcd60e51b815260206004820152601c60248201527f596f752063616e277420636c61696d207468697320657363726f772e0000000060448201526064016107cf565b600082815260fc6020526040808220600381015460049091015491516001600160a01b039091169282156108fc02929190818181858888f19350505050158015611389573d6000803e3d6000fd5b50606554600083815260fc60205260408082206005015490516001600160a01b03909316926108fc82150292818181858888f193505050501580156113d2573d6000803e3d6000fd5b50600082815260fc60205260409020426008820155600901805460ff19166003908117909155610929565b600081815260fc602052604090206002015481906001600160a01b031633146114605760405162461bcd60e51b81526020600482015260156024820152744f6e6c792042757965722043616e2041636365737360581b60448201526064016107cf565b6002600154036114825760405162461bcd60e51b81526004016107cf906127f4565b6002600155600082815260fc602052604081206009015460ff1660048111156114ad576114ad61240e565b146114fa5760405162461bcd60e51b815260206004820152601e60248201527f596f752063616e27742064656c69766572207468697320657363726f772e000060448201526064016107cf565b600082815260fc60205260409020426008820155600901805460ff19166001908117909155610929565b61152c612349565b60fc6000838152602001908152602001600020604051806101400160405290816000820154815260200160018201805461156590612791565b80601f016020809104026020016040519081016040528092919081815260200182805461159190612791565b80156115de5780601f106115b3576101008083540402835291602001916115de565b820191906000526020600020905b8154815290600101906020018083116115c157829003601f168201915b505050918352505060028201546001600160a01b0390811660208301526003830154166040820152600480830154606083015260058301546080830152600683015460a0830152600783015460c0830152600883015460e083015260098301546101009092019160ff16908111156116585761165861240e565b60048111156116695761166961240e565b90525092915050565b61167a611f7e565b60026001540361169c5760405162461bcd60e51b81526004016107cf906127f4565b60026001908155600082815260fc602052604090206009015460ff1660048111156116c9576116c961240e565b146117475760405162461bcd60e51b815260206004820152604260248201527f596f752063616e27742064656c69766572207468697320657363726f772e204f60448201527f6e6c79204f776e65722063616e20706572666f726d207468697320616374696f606482015261371760f11b608482015260a4016107cf565b600081815260fc6020526040808220600381015460049091015491516001600160a01b039091169282156108fc02929190818181858888f19350505050158015611795573d6000803e3d6000fd5b50606554600082815260fc60205260408082206005015490516001600160a01b03909316926108fc82150292818181858888f193505050501580156117de573d6000803e3d6000fd5b50600081815260fc60205260409081902042600882015560098101805460ff19166002908117909155808201546003830154600484015460058501549551939587957facfcb6d1fa91c83112102ce242b5502826bbc1a8114bc5030f4b4bd844dc3e6795611861956001909201946001600160a01b03928316949216929061282b565b60405180910390a35060018055565b606060008080843361188a6065546001600160a01b031690565b6001600160a01b031603611ae75760006118a360fb5490565b905060016118b189836129b3565b8311156118cd576118c289836129b3565b9250600090506118e1565b6118d789836129b3565b83036118e1575060005b60008367ffffffffffffffff8111156118fc576118fc6125ab565b60405190808252806020026020018201604052801561193557816020015b611922612349565b81526020019060019003908161191a5790505b50905060005b84811015611ac85760fc6000611951838e61277e565b61195c90600161277e565b8152602001908152602001600020604051806101400160405290816000820154815260200160018201805461199090612791565b80601f01602080910402602001604051908101604052809291908181526020018280546119bc90612791565b8015611a095780601f106119de57610100808354040283529160200191611a09565b820191906000526020600020905b8154815290600101906020018083116119ec57829003601f168201915b505050918352505060028201546001600160a01b0390811660208301526003830154166040820152600480830154606083015260058301546080830152600683015460a0830152600783015460c0830152600883015460e083015260098301546101009092019160ff1690811115611a8357611a8361240e565b6004811115611a9457611a9461240e565b81525050828281518110611aaa57611aaa6127c5565b60200260200101819052508080611ac0906127db565b91505061193b565b50808383611ad6878e61277e565b975097509750975050505050611d87565b33600090815260fd6020526040902054600190611b059089906129b3565b821115611b325733600090815260fd6020526040902054611b279089906129b3565b915060009050611b57565b33600090815260fd6020526040902054611b4d9089906129b3565b8203611b57575060005b60008267ffffffffffffffff811115611b7257611b726125ab565b604051908082528060200260200182016040528015611bab57816020015b611b98612349565b815260200190600190039081611b905790505b50905060005b83811015611d5d5733600090815260fe6020526040812060fc919081611bd7858f61277e565b611be290600161277e565b81526020019081526020016000205481526020019081526020016000206040518061014001604052908160008201548152602001600182018054611c2590612791565b80601f0160208091040260200160405190810160405280929190818152602001828054611c5190612791565b8015611c9e5780601f10611c7357610100808354040283529160200191611c9e565b820191906000526020600020905b815481529060010190602001808311611c8157829003601f168201915b505050918352505060028201546001600160a01b0390811660208301526003830154166040820152600480830154606083015260058301546080830152600683015460a0830152600783015460c0830152600883015460e083015260098301546101009092019160ff1690811115611d1857611d1861240e565b6004811115611d2957611d2961240e565b81525050828281518110611d3f57611d3f6127c5565b60200260200101819052508080611d55906127db565b915050611bb1565b5033600090815260fd6020526040902054819083611d7b868d61277e565b96509650965096505050505b92959194509250565b611d98611f7e565b6001600160a01b038116611dfd5760405162461bcd60e51b815260206004820152602660248201527f4f776e61626c653a206e6577206f776e657220697320746865207a65726f206160448201526564647265737360d01b60648201526084016107cf565b610a8081611fd8565b610a80611f7e565b7f4910fdfa16fed3260ed0e7147f7cc6da11a60208b5b9406d12a635614ffd91435460ff1615611e4657611e41836120af565b505050565b826001600160a01b03166352d1902d6040518163ffffffff1660e01b8152600401602060405180830381865afa925050508015611ea0575060408051601f3d908101601f19168201909252611e9d91810190612b16565b60015b611f035760405162461bcd60e51b815260206004820152602e60248201527f45524331393637557067726164653a206e657720696d706c656d656e7461746960448201526d6f6e206973206e6f74205555505360901b60648201526084016107cf565b600080516020612baa8339815191528114611f725760405162461bcd60e51b815260206004820152602960248201527f45524331393637557067726164653a20756e737570706f727465642070726f786044820152681a58589b195555525160ba1b60648201526084016107cf565b50611e4183838361214b565b6065546001600160a01b031633146110ba5760405162461bcd60e51b815260206004820181905260248201527f4f776e61626c653a2063616c6c6572206973206e6f7420746865206f776e657260448201526064016107cf565b606580546001600160a01b038381166001600160a01b0319831681179093556040519116919082907f8be0079c531659141344cd1fd0a4f28419497f9722a3daafe3b4186f6b6457e090600090a35050565b600054610100900460ff166120515760405162461bcd60e51b81526004016107cf90612b2f565b6110ba612176565b600054610100900460ff166120805760405162461bcd60e51b81526004016107cf90612b2f565b6110ba6121a3565b600054610100900460ff166110ba5760405162461bcd60e51b81526004016107cf90612b2f565b6001600160a01b0381163b61211c5760405162461bcd60e51b815260206004820152602d60248201527f455243313936373a206e657720696d706c656d656e746174696f6e206973206e60448201526c1bdd08184818dbdb9d1c9858dd609a1b60648201526084016107cf565b600080516020612baa83398151915280546001600160a01b0319166001600160a01b0392909216919091179055565b612154836121d3565b6000825111806121615750805b15611e41576121708383612213565b50505050565b600054610100900460ff1661219d5760405162461bcd60e51b81526004016107cf90612b2f565b60018055565b600054610100900460ff166121ca5760405162461bcd60e51b81526004016107cf90612b2f565b6110ba33611fd8565b6121dc816120af565b6040516001600160a01b038216907fbc7cd75a20ee27fd9adebab32041f755214dbc6bffa90cc0225b39da2e5c2d3b90600090a250565b60606001600160a01b0383163b61227b5760405162461bcd60e51b815260206004820152602660248201527f416464726573733a2064656c65676174652063616c6c20746f206e6f6e2d636f6044820152651b9d1c9858dd60d21b60648201526084016107cf565b600080846001600160a01b0316846040516122969190612b7a565b600060405180830381855af49150503d80600081146122d1576040519150601f19603f3d011682016040523d82523d6000602084013e6122d6565b606091505b50915091506122fe8282604051806060016040528060278152602001612bca60279139612309565b925050505b92915050565b60608315612318575081612342565b8251156123285782518084602001fd5b8160405162461bcd60e51b81526004016107cf9190612b96565b9392505050565b604051806101400160405280600081526020016060815260200160006001600160a01b0316815260200160006001600160a01b031681526020016000815260200160008152602001600081526020016000815260200160008152602001600060048111156123b9576123b961240e565b905290565b60005b838110156123d95781810151838201526020016123c1565b50506000910152565b600081518084526123fa8160208601602086016123be565b601f01601f19169290920160200192915050565b634e487b7160e01b600052602160045260246000fd5b6005811061244257634e487b7160e01b600052602160045260246000fd5b9052565b6000610140825184526020830151816020860152612466828601826123e2565b915050604083015161248360408601826001600160a01b03169052565b50606083015161249e60608601826001600160a01b03169052565b506080830151608085015260a083015160a085015260c083015160c085015260e083015160e0850152610100808401518186015250610120808401516124e682870182612424565b5090949350505050565b600082825180855260208086019550808260051b84010181860160005b8481101561253b57601f19868403018952612529838351612446565b9884019892509083019060010161250d565b5090979650505050505050565b60208152600061234260208301846124f0565b60006020828403121561256d57600080fd5b5035919050565b80356001600160a01b038116811461258b57600080fd5b919050565b6000602082840312156125a257600080fd5b61234282612574565b634e487b7160e01b600052604160045260246000fd5b600067ffffffffffffffff808411156125dc576125dc6125ab565b604051601f8501601f19908116603f01168101908282118183101715612604576126046125ab565b8160405280935085815286868601111561261d57600080fd5b858560208301376000602087830101525050509392505050565b6000806040838503121561264a57600080fd5b61265383612574565b9150602083013567ffffffffffffffff81111561266f57600080fd5b8301601f8101851361268057600080fd5b61268f858235602084016125c1565b9150509250929050565b6000806000606084860312156126ae57600080fd5b6126b784612574565b9250602084013567ffffffffffffffff8111156126d357600080fd5b8401601f810186136126e457600080fd5b6126f3868235602084016125c1565b925050604084013590509250925092565b6020815260006123426020830184612446565b6000806040838503121561272a57600080fd5b50508035926020909101359150565b60808152600061274c60808301876124f0565b6020830195909552509115156040830152606090910152919050565b634e487b7160e01b600052601160045260246000fd5b8082018082111561230357612303612768565b600181811c908216806127a557607f821691505b60208210810361072957634e487b7160e01b600052602260045260246000fd5b634e487b7160e01b600052603260045260246000fd5b6000600182016127ed576127ed612768565b5060010190565b6020808252601f908201527f5265656e7472616e637947756172643a207265656e7472616e742063616c6c00604082015260600190565b60a08152600080875461283d81612791565b8060a086015260c060018084166000811461285f5760018114612879576128aa565b60ff1985168884015283151560051b8801830195506128aa565b8c60005260208060002060005b868110156128a15781548b8201870152908401908201612886565b8a018501975050505b505050506001600160a01b03881660208501525090506001600160a01b03851660408301526060820193909352608001529392505050565b6020808252602c908201527f46756e6374696f6e206d7573742062652063616c6c6564207468726f7567682060408201526b19195b1959d85d1958d85b1b60a21b606082015260800190565b6020808252602c908201527f46756e6374696f6e206d7573742062652063616c6c6564207468726f7567682060408201526b6163746976652070726f787960a01b606082015260800190565b808202811582820484141761230357612303612768565b6000826129ae57634e487b7160e01b600052601260045260246000fd5b500490565b8181038181111561230357612303612768565b601f821115611e4157600081815260208120601f850160051c810160208610156129ed5750805b601f850160051c820191505b81811015612a0c578281556001016129f9565b505050505050565b815167ffffffffffffffff811115612a2e57612a2e6125ab565b612a4281612a3c8454612791565b846129c6565b602080601f831160018114612a775760008415612a5f5750858301515b600019600386901b1c1916600185901b178555612a0c565b600085815260208120601f198616915b82811015612aa657888601518255948401946001909101908401612a87565b5085821015612ac45787850151600019600388901b60f8161c191681555b5050505050600190811b01905550565b608081526000612ae760808301876123e2565b6001600160a01b038681166020850152851660408401529050612b0d6060830184612424565b95945050505050565b600060208284031215612b2857600080fd5b5051919050565b6020808252602b908201527f496e697469616c697a61626c653a20636f6e7472616374206973206e6f74206960408201526a6e697469616c697a696e6760a81b606082015260800190565b60008251612b8c8184602087016123be565b9190910192915050565b60208152600061234260208301846123e256fe360894a13ba1a3210667c828492db98dca3e2076cc3735a920a3ca505d382bbc416464726573733a206c6f772d6c6576656c2064656c65676174652063616c6c206661696c6564a2646970667358221220e1c14927386a6b65f4f31d8c0724400150de1a227bed4d41b958c4c267bb0b7364736f6c63430008110033",
  "linkReferences": {},
  "deployedLinkReferences": {}
}